{
	"Solidity_Tutorials/lesson-4/quize.sol": {
		"LessonFour": {
			"abi": [
				{
					"inputs": [
						{
							"internalType": "address",
							"name": "priceFeed",
							"type": "address"
						}
					],
					"stateMutability": "nonpayable",
					"type": "constructor"
				},
				{
					"inputs": [],
					"name": "LessonFour__WrongPrice",
					"type": "error"
				},
				{
					"inputs": [],
					"name": "actualPrice",
					"outputs": [
						{
							"internalType": "uint256",
							"name": "",
							"type": "uint256"
						}
					],
					"stateMutability": "view",
					"type": "function"
				},
				{
					"inputs": [],
					"name": "getDecimals",
					"outputs": [
						{
							"internalType": "uint8",
							"name": "",
							"type": "uint8"
						}
					],
					"stateMutability": "view",
					"type": "function"
				},
				{
					"inputs": [],
					"name": "getPrice",
					"outputs": [
						{
							"internalType": "uint256",
							"name": "",
							"type": "uint256"
						}
					],
					"stateMutability": "view",
					"type": "function"
				},
				{
					"inputs": [],
					"name": "getPriceFeed",
					"outputs": [
						{
							"internalType": "address",
							"name": "",
							"type": "address"
						}
					],
					"stateMutability": "view",
					"type": "function"
				},
				{
					"inputs": [
						{
							"internalType": "uint256",
							"name": "priceGuess",
							"type": "uint256"
						}
					],
					"name": "solveChallenge",
					"outputs": [
						{
							"internalType": "uint256",
							"name": "",
							"type": "uint256"
						}
					],
					"stateMutability": "nonpayable",
					"type": "function"
				}
			],
			"devdoc": {
				"kind": "dev",
				"methods": {},
				"version": 1
			},
			"evm": {
				"assembly": "    /* \"Solidity_Tutorials/lesson-4/quize.sol\":252:2642  contract LessonFour {... */\n  mstore(0x40, 0xa0)\n    /* \"Solidity_Tutorials/lesson-4/quize.sol\":459:530  constructor(address priceFeed) {... */\n  callvalue\n  dup1\n  iszero\n  tag_1\n  jumpi\n  0x00\n  dup1\n  revert\ntag_1:\n  pop\n  mload(0x40)\n  sub(codesize, bytecodeSize)\n  dup1\n  bytecodeSize\n  dup4\n  codecopy\n  dup2\n  dup2\n  add\n  0x40\n  mstore\n  dup2\n  add\n  swap1\n  tag_2\n  swap2\n  swap1\n  tag_3\n  jump\t// in\ntag_2:\n    /* \"Solidity_Tutorials/lesson-4/quize.sol\":514:523  priceFeed */\n  dup1\n    /* \"Solidity_Tutorials/lesson-4/quize.sol\":500:523  i_priceFeed = priceFeed */\n  0xffffffffffffffffffffffffffffffffffffffff\n  and\n  0x80\n  dup2\n  0xffffffffffffffffffffffffffffffffffffffff\n  and\n  dup2\n  mstore\n  pop\n  pop\n    /* \"Solidity_Tutorials/lesson-4/quize.sol\":459:530  constructor(address priceFeed) {... */\n  pop\n    /* \"Solidity_Tutorials/lesson-4/quize.sol\":252:2642  contract LessonFour {... */\n  jump(tag_6)\n    /* \"#utility.yul\":88:205   */\ntag_8:\n    /* \"#utility.yul\":197:198   */\n  0x00\n    /* \"#utility.yul\":194:195   */\n  dup1\n    /* \"#utility.yul\":187:199   */\n  revert\n    /* \"#utility.yul\":334:460   */\ntag_10:\n    /* \"#utility.yul\":371:378   */\n  0x00\n    /* \"#utility.yul\":411:453   */\n  0xffffffffffffffffffffffffffffffffffffffff\n    /* \"#utility.yul\":404:409   */\n  dup3\n    /* \"#utility.yul\":400:454   */\n  and\n    /* \"#utility.yul\":389:454   */\n  swap1\n  pop\n    /* \"#utility.yul\":334:460   */\n  swap2\n  swap1\n  pop\n  jump\t// out\n    /* \"#utility.yul\":466:562   */\ntag_11:\n    /* \"#utility.yul\":503:510   */\n  0x00\n    /* \"#utility.yul\":532:556   */\n  tag_20\n    /* \"#utility.yul\":550:555   */\n  dup3\n    /* \"#utility.yul\":532:556   */\n  tag_10\n  jump\t// in\ntag_20:\n    /* \"#utility.yul\":521:556   */\n  swap1\n  pop\n    /* \"#utility.yul\":466:562   */\n  swap2\n  swap1\n  pop\n  jump\t// out\n    /* \"#utility.yul\":568:690   */\ntag_12:\n    /* \"#utility.yul\":641:665   */\n  tag_22\n    /* \"#utility.yul\":659:664   */\n  dup2\n    /* \"#utility.yul\":641:665   */\n  tag_11\n  jump\t// in\ntag_22:\n    /* \"#utility.yul\":634:639   */\n  dup2\n    /* \"#utility.yul\":631:666   */\n  eq\n    /* \"#utility.yul\":621:684   */\n  tag_23\n  jumpi\n    /* \"#utility.yul\":680:681   */\n  0x00\n    /* \"#utility.yul\":677:678   */\n  dup1\n    /* \"#utility.yul\":670:682   */\n  revert\n    /* \"#utility.yul\":621:684   */\ntag_23:\n    /* \"#utility.yul\":568:690   */\n  pop\n  jump\t// out\n    /* \"#utility.yul\":696:839   */\ntag_13:\n    /* \"#utility.yul\":753:758   */\n  0x00\n    /* \"#utility.yul\":784:790   */\n  dup2\n    /* \"#utility.yul\":778:791   */\n  mload\n    /* \"#utility.yul\":769:791   */\n  swap1\n  pop\n    /* \"#utility.yul\":800:833   */\n  tag_25\n    /* \"#utility.yul\":827:832   */\n  dup2\n    /* \"#utility.yul\":800:833   */\n  tag_12\n  jump\t// in\ntag_25:\n    /* \"#utility.yul\":696:839   */\n  swap3\n  swap2\n  pop\n  pop\n  jump\t// out\n    /* \"#utility.yul\":845:1196   */\ntag_3:\n    /* \"#utility.yul\":915:921   */\n  0x00\n    /* \"#utility.yul\":964:966   */\n  0x20\n    /* \"#utility.yul\":952:961   */\n  dup3\n    /* \"#utility.yul\":943:950   */\n  dup5\n    /* \"#utility.yul\":939:962   */\n  sub\n    /* \"#utility.yul\":935:967   */\n  slt\n    /* \"#utility.yul\":932:1051   */\n  iszero\n  tag_27\n  jumpi\n    /* \"#utility.yul\":970:1049   */\n  tag_28\n  tag_8\n  jump\t// in\ntag_28:\n    /* \"#utility.yul\":932:1051   */\ntag_27:\n    /* \"#utility.yul\":1090:1091   */\n  0x00\n    /* \"#utility.yul\":1115:1179   */\n  tag_29\n    /* \"#utility.yul\":1171:1178   */\n  dup5\n    /* \"#utility.yul\":1162:1168   */\n  dup3\n    /* \"#utility.yul\":1151:1160   */\n  dup6\n    /* \"#utility.yul\":1147:1169   */\n  add\n    /* \"#utility.yul\":1115:1179   */\n  tag_13\n  jump\t// in\ntag_29:\n    /* \"#utility.yul\":1105:1179   */\n  swap2\n  pop\n    /* \"#utility.yul\":1061:1189   */\n  pop\n    /* \"#utility.yul\":845:1196   */\n  swap3\n  swap2\n  pop\n  pop\n  jump\t// out\n    /* \"Solidity_Tutorials/lesson-4/quize.sol\":252:2642  contract LessonFour {... */\ntag_6:\n  mload(0x80)\n  codecopy(0x00, dataOffset(sub_0), dataSize(sub_0))\n  0x00\n  assignImmutable(\"0x32da71dbd53bc029835bc5ecdd3e688035cc92bb61b1811d1685e67ba974e19f\")\n  return(0x00, dataSize(sub_0))\nstop\n\nsub_0: assembly {\n        /* \"Solidity_Tutorials/lesson-4/quize.sol\":252:2642  contract LessonFour {... */\n      mstore(0x40, 0x80)\n      callvalue\n      dup1\n      iszero\n      tag_1\n      jumpi\n      0x00\n      dup1\n      revert\n    tag_1:\n      pop\n      jumpi(tag_2, lt(calldatasize, 0x04))\n      shr(0xe0, calldataload(0x00))\n      dup1\n      0x8c648117\n      eq\n      tag_3\n      jumpi\n      dup1\n      0x98d5fdca\n      eq\n      tag_4\n      jumpi\n      dup1\n      0x9e87a5cd\n      eq\n      tag_5\n      jumpi\n      dup1\n      0xe8e4424a\n      eq\n      tag_6\n      jumpi\n      dup1\n      0xf0141d84\n      eq\n      tag_7\n      jumpi\n    tag_2:\n      0x00\n      dup1\n      revert\n        /* \"Solidity_Tutorials/lesson-4/quize.sol\":1267:1293  uint256 public actualPrice */\n    tag_3:\n      tag_8\n      tag_9\n      jump\t// in\n    tag_8:\n      mload(0x40)\n      tag_10\n      swap2\n      swap1\n      tag_11\n      jump\t// in\n    tag_10:\n      mload(0x40)\n      dup1\n      swap2\n      sub\n      swap1\n      return\n        /* \"Solidity_Tutorials/lesson-4/quize.sol\":536:709  function getPrice() public  view returns (uint256) {... */\n    tag_4:\n      tag_12\n      tag_13\n      jump\t// in\n    tag_12:\n      mload(0x40)\n      tag_14\n      swap2\n      swap1\n      tag_11\n      jump\t// in\n    tag_14:\n      mload(0x40)\n      dup1\n      swap2\n      sub\n      swap1\n      return\n        /* \"Solidity_Tutorials/lesson-4/quize.sol\":841:932  function getPriceFeed() external view returns (address) {... */\n    tag_5:\n      tag_15\n      tag_16\n      jump\t// in\n    tag_15:\n      mload(0x40)\n      tag_17\n      swap2\n      swap1\n      tag_18\n      jump\t// in\n    tag_17:\n      mload(0x40)\n      dup1\n      swap2\n      sub\n      swap1\n      return\n        /* \"Solidity_Tutorials/lesson-4/quize.sol\":1300:1778  function solveChallenge(uint256 priceGuess) external  returns(uint256){... */\n    tag_6:\n      tag_19\n      0x04\n      dup1\n      calldatasize\n      sub\n      dup2\n      add\n      swap1\n      tag_20\n      swap2\n      swap1\n      tag_21\n      jump\t// in\n    tag_20:\n      tag_22\n      jump\t// in\n    tag_19:\n      mload(0x40)\n      tag_23\n      swap2\n      swap1\n      tag_11\n      jump\t// in\n    tag_23:\n      mload(0x40)\n      dup1\n      swap2\n      sub\n      swap1\n      return\n        /* \"Solidity_Tutorials/lesson-4/quize.sol\":715:835  function getDecimals() public view returns (uint8) {... */\n    tag_7:\n      tag_24\n      tag_25\n      jump\t// in\n    tag_24:\n      mload(0x40)\n      tag_26\n      swap2\n      swap1\n      tag_27\n      jump\t// in\n    tag_26:\n      mload(0x40)\n      dup1\n      swap2\n      sub\n      swap1\n      return\n        /* \"Solidity_Tutorials/lesson-4/quize.sol\":1267:1293  uint256 public actualPrice */\n    tag_9:\n      sload(0x00)\n      dup2\n      jump\t// out\n        /* \"Solidity_Tutorials/lesson-4/quize.sol\":536:709  function getPrice() public  view returns (uint256) {... */\n    tag_13:\n        /* \"Solidity_Tutorials/lesson-4/quize.sol\":578:585  uint256 */\n      0x00\n        /* \"Solidity_Tutorials/lesson-4/quize.sol\":600:612  int256 price */\n      dup1\n        /* \"Solidity_Tutorials/lesson-4/quize.sol\":641:652  i_priceFeed */\n      immutable(\"0x32da71dbd53bc029835bc5ecdd3e688035cc92bb61b1811d1685e67ba974e19f\")\n        /* \"Solidity_Tutorials/lesson-4/quize.sol\":619:669  AggregatorV3Interface(i_priceFeed).latestRoundData */\n      0xffffffffffffffffffffffffffffffffffffffff\n      and\n      0xfeaf968c\n        /* \"Solidity_Tutorials/lesson-4/quize.sol\":619:671  AggregatorV3Interface(i_priceFeed).latestRoundData() */\n      mload(0x40)\n      dup2\n      0xffffffff\n      and\n      0xe0\n      shl\n      dup2\n      mstore\n      0x04\n      add\n      0xa0\n      mload(0x40)\n      dup1\n      dup4\n      sub\n      dup2\n      dup7\n      gas\n      staticcall\n      iszero\n      dup1\n      iszero\n      tag_30\n      jumpi\n      returndatasize\n      0x00\n      dup1\n      returndatacopy\n      revert(0x00, returndatasize)\n    tag_30:\n      pop\n      pop\n      pop\n      pop\n      mload(0x40)\n      returndatasize\n      not(0x1f)\n      0x1f\n      dup3\n      add\n      and\n      dup3\n      add\n      dup1\n      0x40\n      mstore\n      pop\n      dup2\n      add\n      swap1\n      tag_31\n      swap2\n      swap1\n      tag_32\n      jump\t// in\n    tag_31:\n        /* \"Solidity_Tutorials/lesson-4/quize.sol\":597:671  (, int256 price,,,) = AggregatorV3Interface(i_priceFeed).latestRoundData() */\n      pop\n      pop\n      pop\n      swap2\n      pop\n      pop\n        /* \"Solidity_Tutorials/lesson-4/quize.sol\":696:701  price */\n      dup1\n        /* \"Solidity_Tutorials/lesson-4/quize.sol\":681:702  return uint256(price) */\n      swap2\n      pop\n      pop\n        /* \"Solidity_Tutorials/lesson-4/quize.sol\":536:709  function getPrice() public  view returns (uint256) {... */\n      swap1\n      jump\t// out\n        /* \"Solidity_Tutorials/lesson-4/quize.sol\":841:932  function getPriceFeed() external view returns (address) {... */\n    tag_16:\n        /* \"Solidity_Tutorials/lesson-4/quize.sol\":888:895  address */\n      0x00\n        /* \"Solidity_Tutorials/lesson-4/quize.sol\":914:925  i_priceFeed */\n      immutable(\"0x32da71dbd53bc029835bc5ecdd3e688035cc92bb61b1811d1685e67ba974e19f\")\n        /* \"Solidity_Tutorials/lesson-4/quize.sol\":907:925  return i_priceFeed */\n      swap1\n      pop\n        /* \"Solidity_Tutorials/lesson-4/quize.sol\":841:932  function getPriceFeed() external view returns (address) {... */\n      swap1\n      jump\t// out\n        /* \"Solidity_Tutorials/lesson-4/quize.sol\":1300:1778  function solveChallenge(uint256 priceGuess) external  returns(uint256){... */\n    tag_22:\n        /* \"Solidity_Tutorials/lesson-4/quize.sol\":1362:1369  uint256 */\n      0x00\n        /* \"Solidity_Tutorials/lesson-4/quize.sol\":1394:1404  getPrice() */\n      tag_35\n        /* \"Solidity_Tutorials/lesson-4/quize.sol\":1394:1402  getPrice */\n      tag_13\n        /* \"Solidity_Tutorials/lesson-4/quize.sol\":1394:1404  getPrice() */\n      jump\t// in\n    tag_35:\n        /* \"Solidity_Tutorials/lesson-4/quize.sol\":1380:1391  actualPrice */\n      0x00\n        /* \"Solidity_Tutorials/lesson-4/quize.sol\":1380:1404  actualPrice = getPrice() */\n      dup2\n      swap1\n      sstore\n      pop\n        /* \"Solidity_Tutorials/lesson-4/quize.sol\":1435:1436  8 */\n      0x08\n        /* \"Solidity_Tutorials/lesson-4/quize.sol\":1418:1431  getDecimals() */\n      tag_36\n        /* \"Solidity_Tutorials/lesson-4/quize.sol\":1418:1429  getDecimals */\n      tag_25\n        /* \"Solidity_Tutorials/lesson-4/quize.sol\":1418:1431  getDecimals() */\n      jump\t// in\n    tag_36:\n        /* \"Solidity_Tutorials/lesson-4/quize.sol\":1418:1436  getDecimals() == 8 */\n      0xff\n      and\n      sub\n        /* \"Solidity_Tutorials/lesson-4/quize.sol\":1414:1496  if (getDecimals() == 8) {... */\n      tag_37\n      jumpi\n        /* \"Solidity_Tutorials/lesson-4/quize.sol\":1480:1485  10e10 */\n      0x174876e800\n        /* \"Solidity_Tutorials/lesson-4/quize.sol\":1466:1477  actualPrice */\n      sload(0x00)\n        /* \"Solidity_Tutorials/lesson-4/quize.sol\":1466:1485  actualPrice * 10e10 */\n      tag_38\n      swap2\n      swap1\n      tag_39\n      jump\t// in\n    tag_38:\n        /* \"Solidity_Tutorials/lesson-4/quize.sol\":1452:1463  actualPrice */\n      0x00\n        /* \"Solidity_Tutorials/lesson-4/quize.sol\":1452:1485  actualPrice = actualPrice * 10e10 */\n      dup2\n      swap1\n      sstore\n      pop\n        /* \"Solidity_Tutorials/lesson-4/quize.sol\":1414:1496  if (getDecimals() == 8) {... */\n    tag_37:\n        /* \"Solidity_Tutorials/lesson-4/quize.sol\":1530:1540  priceGuess */\n      dup2\n        /* \"Solidity_Tutorials/lesson-4/quize.sol\":1523:1527  3e18 */\n      0x29a2241af62c0000\n        /* \"Solidity_Tutorials/lesson-4/quize.sol\":1509:1520  actualPrice */\n      sload(0x00)\n        /* \"Solidity_Tutorials/lesson-4/quize.sol\":1509:1527  actualPrice + 3e18 */\n      tag_40\n      swap2\n      swap1\n      tag_41\n      jump\t// in\n    tag_40:\n        /* \"Solidity_Tutorials/lesson-4/quize.sol\":1509:1540  actualPrice + 3e18 > priceGuess */\n      gt\n        /* \"Solidity_Tutorials/lesson-4/quize.sol\":1509:1575  actualPrice + 3e18 > priceGuess && actualPrice - 3e18 < priceGuess */\n      dup1\n      iszero\n      tag_42\n      jumpi\n      pop\n        /* \"Solidity_Tutorials/lesson-4/quize.sol\":1565:1575  priceGuess */\n      dup2\n        /* \"Solidity_Tutorials/lesson-4/quize.sol\":1558:1562  3e18 */\n      0x29a2241af62c0000\n        /* \"Solidity_Tutorials/lesson-4/quize.sol\":1544:1555  actualPrice */\n      sload(0x00)\n        /* \"Solidity_Tutorials/lesson-4/quize.sol\":1544:1562  actualPrice - 3e18 */\n      tag_43\n      swap2\n      swap1\n      tag_44\n      jump\t// in\n    tag_43:\n        /* \"Solidity_Tutorials/lesson-4/quize.sol\":1544:1575  actualPrice - 3e18 < priceGuess */\n      lt\n        /* \"Solidity_Tutorials/lesson-4/quize.sol\":1509:1575  actualPrice + 3e18 > priceGuess && actualPrice - 3e18 < priceGuess */\n    tag_42:\n        /* \"Solidity_Tutorials/lesson-4/quize.sol\":1505:1743  if (actualPrice + 3e18 > priceGuess && actualPrice - 3e18 < priceGuess) {... */\n      tag_46\n      jumpi\n        /* \"Solidity_Tutorials/lesson-4/quize.sol\":1721:1732  actualPrice */\n      sload(0x00)\n        /* \"Solidity_Tutorials/lesson-4/quize.sol\":1714:1732  return actualPrice */\n      swap1\n      pop\n      jump(tag_34)\n        /* \"Solidity_Tutorials/lesson-4/quize.sol\":1505:1743  if (actualPrice + 3e18 > priceGuess && actualPrice - 3e18 < priceGuess) {... */\n    tag_46:\n        /* \"Solidity_Tutorials/lesson-4/quize.sol\":1760:1771  actualPrice */\n      sload(0x00)\n        /* \"Solidity_Tutorials/lesson-4/quize.sol\":1753:1771  return actualPrice */\n      swap1\n      pop\n        /* \"Solidity_Tutorials/lesson-4/quize.sol\":1300:1778  function solveChallenge(uint256 priceGuess) external  returns(uint256){... */\n    tag_34:\n      swap2\n      swap1\n      pop\n      jump\t// out\n        /* \"Solidity_Tutorials/lesson-4/quize.sol\":715:835  function getDecimals() public view returns (uint8) {... */\n    tag_25:\n        /* \"Solidity_Tutorials/lesson-4/quize.sol\":759:764  uint8 */\n      0x00\n        /* \"Solidity_Tutorials/lesson-4/quize.sol\":805:816  i_priceFeed */\n      immutable(\"0x32da71dbd53bc029835bc5ecdd3e688035cc92bb61b1811d1685e67ba974e19f\")\n        /* \"Solidity_Tutorials/lesson-4/quize.sol\":783:826  AggregatorV3Interface(i_priceFeed).decimals */\n      0xffffffffffffffffffffffffffffffffffffffff\n      and\n      0x313ce567\n        /* \"Solidity_Tutorials/lesson-4/quize.sol\":783:828  AggregatorV3Interface(i_priceFeed).decimals() */\n      mload(0x40)\n      dup2\n      0xffffffff\n      and\n      0xe0\n      shl\n      dup2\n      mstore\n      0x04\n      add\n      0x20\n      mload(0x40)\n      dup1\n      dup4\n      sub\n      dup2\n      dup7\n      gas\n      staticcall\n      iszero\n      dup1\n      iszero\n      tag_49\n      jumpi\n      returndatasize\n      0x00\n      dup1\n      returndatacopy\n      revert(0x00, returndatasize)\n    tag_49:\n      pop\n      pop\n      pop\n      pop\n      mload(0x40)\n      returndatasize\n      not(0x1f)\n      0x1f\n      dup3\n      add\n      and\n      dup3\n      add\n      dup1\n      0x40\n      mstore\n      pop\n      dup2\n      add\n      swap1\n      tag_50\n      swap2\n      swap1\n      tag_51\n      jump\t// in\n    tag_50:\n        /* \"Solidity_Tutorials/lesson-4/quize.sol\":776:828  return AggregatorV3Interface(i_priceFeed).decimals() */\n      swap1\n      pop\n        /* \"Solidity_Tutorials/lesson-4/quize.sol\":715:835  function getDecimals() public view returns (uint8) {... */\n      swap1\n      jump\t// out\n        /* \"#utility.yul\":7:84   */\n    tag_52:\n        /* \"#utility.yul\":44:51   */\n      0x00\n        /* \"#utility.yul\":73:78   */\n      dup2\n        /* \"#utility.yul\":62:78   */\n      swap1\n      pop\n        /* \"#utility.yul\":7:84   */\n      swap2\n      swap1\n      pop\n      jump\t// out\n        /* \"#utility.yul\":90:208   */\n    tag_53:\n        /* \"#utility.yul\":177:201   */\n      tag_77\n        /* \"#utility.yul\":195:200   */\n      dup2\n        /* \"#utility.yul\":177:201   */\n      tag_52\n      jump\t// in\n    tag_77:\n        /* \"#utility.yul\":172:175   */\n      dup3\n        /* \"#utility.yul\":165:202   */\n      mstore\n        /* \"#utility.yul\":90:208   */\n      pop\n      pop\n      jump\t// out\n        /* \"#utility.yul\":214:436   */\n    tag_11:\n        /* \"#utility.yul\":307:311   */\n      0x00\n        /* \"#utility.yul\":345:347   */\n      0x20\n        /* \"#utility.yul\":334:343   */\n      dup3\n        /* \"#utility.yul\":330:348   */\n      add\n        /* \"#utility.yul\":322:348   */\n      swap1\n      pop\n        /* \"#utility.yul\":358:429   */\n      tag_79\n        /* \"#utility.yul\":426:427   */\n      0x00\n        /* \"#utility.yul\":415:424   */\n      dup4\n        /* \"#utility.yul\":411:428   */\n      add\n        /* \"#utility.yul\":402:408   */\n      dup5\n        /* \"#utility.yul\":358:429   */\n      tag_53\n      jump\t// in\n    tag_79:\n        /* \"#utility.yul\":214:436   */\n      swap3\n      swap2\n      pop\n      pop\n      jump\t// out\n        /* \"#utility.yul\":442:568   */\n    tag_54:\n        /* \"#utility.yul\":479:486   */\n      0x00\n        /* \"#utility.yul\":519:561   */\n      0xffffffffffffffffffffffffffffffffffffffff\n        /* \"#utility.yul\":512:517   */\n      dup3\n        /* \"#utility.yul\":508:562   */\n      and\n        /* \"#utility.yul\":497:562   */\n      swap1\n      pop\n        /* \"#utility.yul\":442:568   */\n      swap2\n      swap1\n      pop\n      jump\t// out\n        /* \"#utility.yul\":574:670   */\n    tag_55:\n        /* \"#utility.yul\":611:618   */\n      0x00\n        /* \"#utility.yul\":640:664   */\n      tag_82\n        /* \"#utility.yul\":658:663   */\n      dup3\n        /* \"#utility.yul\":640:664   */\n      tag_54\n      jump\t// in\n    tag_82:\n        /* \"#utility.yul\":629:664   */\n      swap1\n      pop\n        /* \"#utility.yul\":574:670   */\n      swap2\n      swap1\n      pop\n      jump\t// out\n        /* \"#utility.yul\":676:794   */\n    tag_56:\n        /* \"#utility.yul\":763:787   */\n      tag_84\n        /* \"#utility.yul\":781:786   */\n      dup2\n        /* \"#utility.yul\":763:787   */\n      tag_55\n      jump\t// in\n    tag_84:\n        /* \"#utility.yul\":758:761   */\n      dup3\n        /* \"#utility.yul\":751:788   */\n      mstore\n        /* \"#utility.yul\":676:794   */\n      pop\n      pop\n      jump\t// out\n        /* \"#utility.yul\":800:1022   */\n    tag_18:\n        /* \"#utility.yul\":893:897   */\n      0x00\n        /* \"#utility.yul\":931:933   */\n      0x20\n        /* \"#utility.yul\":920:929   */\n      dup3\n        /* \"#utility.yul\":916:934   */\n      add\n        /* \"#utility.yul\":908:934   */\n      swap1\n      pop\n        /* \"#utility.yul\":944:1015   */\n      tag_86\n        /* \"#utility.yul\":1012:1013   */\n      0x00\n        /* \"#utility.yul\":1001:1010   */\n      dup4\n        /* \"#utility.yul\":997:1014   */\n      add\n        /* \"#utility.yul\":988:994   */\n      dup5\n        /* \"#utility.yul\":944:1015   */\n      tag_56\n      jump\t// in\n    tag_86:\n        /* \"#utility.yul\":800:1022   */\n      swap3\n      swap2\n      pop\n      pop\n      jump\t// out\n        /* \"#utility.yul\":1109:1226   */\n    tag_58:\n        /* \"#utility.yul\":1218:1219   */\n      0x00\n        /* \"#utility.yul\":1215:1216   */\n      dup1\n        /* \"#utility.yul\":1208:1220   */\n      revert\n        /* \"#utility.yul\":1355:1477   */\n    tag_60:\n        /* \"#utility.yul\":1428:1452   */\n      tag_91\n        /* \"#utility.yul\":1446:1451   */\n      dup2\n        /* \"#utility.yul\":1428:1452   */\n      tag_52\n      jump\t// in\n    tag_91:\n        /* \"#utility.yul\":1421:1426   */\n      dup2\n        /* \"#utility.yul\":1418:1453   */\n      eq\n        /* \"#utility.yul\":1408:1471   */\n      tag_92\n      jumpi\n        /* \"#utility.yul\":1467:1468   */\n      0x00\n        /* \"#utility.yul\":1464:1465   */\n      dup1\n        /* \"#utility.yul\":1457:1469   */\n      revert\n        /* \"#utility.yul\":1408:1471   */\n    tag_92:\n        /* \"#utility.yul\":1355:1477   */\n      pop\n      jump\t// out\n        /* \"#utility.yul\":1483:1622   */\n    tag_61:\n        /* \"#utility.yul\":1529:1534   */\n      0x00\n        /* \"#utility.yul\":1567:1573   */\n      dup2\n        /* \"#utility.yul\":1554:1574   */\n      calldataload\n        /* \"#utility.yul\":1545:1574   */\n      swap1\n      pop\n        /* \"#utility.yul\":1583:1616   */\n      tag_94\n        /* \"#utility.yul\":1610:1615   */\n      dup2\n        /* \"#utility.yul\":1583:1616   */\n      tag_60\n      jump\t// in\n    tag_94:\n        /* \"#utility.yul\":1483:1622   */\n      swap3\n      swap2\n      pop\n      pop\n      jump\t// out\n        /* \"#utility.yul\":1628:1957   */\n    tag_21:\n        /* \"#utility.yul\":1687:1693   */\n      0x00\n        /* \"#utility.yul\":1736:1738   */\n      0x20\n        /* \"#utility.yul\":1724:1733   */\n      dup3\n        /* \"#utility.yul\":1715:1722   */\n      dup5\n        /* \"#utility.yul\":1711:1734   */\n      sub\n        /* \"#utility.yul\":1707:1739   */\n      slt\n        /* \"#utility.yul\":1704:1823   */\n      iszero\n      tag_96\n      jumpi\n        /* \"#utility.yul\":1742:1821   */\n      tag_97\n      tag_58\n      jump\t// in\n    tag_97:\n        /* \"#utility.yul\":1704:1823   */\n    tag_96:\n        /* \"#utility.yul\":1862:1863   */\n      0x00\n        /* \"#utility.yul\":1887:1940   */\n      tag_98\n        /* \"#utility.yul\":1932:1939   */\n      dup5\n        /* \"#utility.yul\":1923:1929   */\n      dup3\n        /* \"#utility.yul\":1912:1921   */\n      dup6\n        /* \"#utility.yul\":1908:1930   */\n      add\n        /* \"#utility.yul\":1887:1940   */\n      tag_61\n      jump\t// in\n    tag_98:\n        /* \"#utility.yul\":1877:1940   */\n      swap2\n      pop\n        /* \"#utility.yul\":1833:1950   */\n      pop\n        /* \"#utility.yul\":1628:1957   */\n      swap3\n      swap2\n      pop\n      pop\n      jump\t// out\n        /* \"#utility.yul\":1963:2049   */\n    tag_62:\n        /* \"#utility.yul\":1998:2005   */\n      0x00\n        /* \"#utility.yul\":2038:2042   */\n      0xff\n        /* \"#utility.yul\":2031:2036   */\n      dup3\n        /* \"#utility.yul\":2027:2043   */\n      and\n        /* \"#utility.yul\":2016:2043   */\n      swap1\n      pop\n        /* \"#utility.yul\":1963:2049   */\n      swap2\n      swap1\n      pop\n      jump\t// out\n        /* \"#utility.yul\":2055:2167   */\n    tag_63:\n        /* \"#utility.yul\":2138:2160   */\n      tag_101\n        /* \"#utility.yul\":2154:2159   */\n      dup2\n        /* \"#utility.yul\":2138:2160   */\n      tag_62\n      jump\t// in\n    tag_101:\n        /* \"#utility.yul\":2133:2136   */\n      dup3\n        /* \"#utility.yul\":2126:2161   */\n      mstore\n        /* \"#utility.yul\":2055:2167   */\n      pop\n      pop\n      jump\t// out\n        /* \"#utility.yul\":2173:2387   */\n    tag_27:\n        /* \"#utility.yul\":2262:2266   */\n      0x00\n        /* \"#utility.yul\":2300:2302   */\n      0x20\n        /* \"#utility.yul\":2289:2298   */\n      dup3\n        /* \"#utility.yul\":2285:2303   */\n      add\n        /* \"#utility.yul\":2277:2303   */\n      swap1\n      pop\n        /* \"#utility.yul\":2313:2380   */\n      tag_103\n        /* \"#utility.yul\":2377:2378   */\n      0x00\n        /* \"#utility.yul\":2366:2375   */\n      dup4\n        /* \"#utility.yul\":2362:2379   */\n      add\n        /* \"#utility.yul\":2353:2359   */\n      dup5\n        /* \"#utility.yul\":2313:2380   */\n      tag_63\n      jump\t// in\n    tag_103:\n        /* \"#utility.yul\":2173:2387   */\n      swap3\n      swap2\n      pop\n      pop\n      jump\t// out\n        /* \"#utility.yul\":2393:2498   */\n    tag_64:\n        /* \"#utility.yul\":2429:2436   */\n      0x00\n        /* \"#utility.yul\":2469:2491   */\n      0xffffffffffffffffffff\n        /* \"#utility.yul\":2462:2467   */\n      dup3\n        /* \"#utility.yul\":2458:2492   */\n      and\n        /* \"#utility.yul\":2447:2492   */\n      swap1\n      pop\n        /* \"#utility.yul\":2393:2498   */\n      swap2\n      swap1\n      pop\n      jump\t// out\n        /* \"#utility.yul\":2504:2624   */\n    tag_65:\n        /* \"#utility.yul\":2576:2599   */\n      tag_106\n        /* \"#utility.yul\":2593:2598   */\n      dup2\n        /* \"#utility.yul\":2576:2599   */\n      tag_64\n      jump\t// in\n    tag_106:\n        /* \"#utility.yul\":2569:2574   */\n      dup2\n        /* \"#utility.yul\":2566:2600   */\n      eq\n        /* \"#utility.yul\":2556:2618   */\n      tag_107\n      jumpi\n        /* \"#utility.yul\":2614:2615   */\n      0x00\n        /* \"#utility.yul\":2611:2612   */\n      dup1\n        /* \"#utility.yul\":2604:2616   */\n      revert\n        /* \"#utility.yul\":2556:2618   */\n    tag_107:\n        /* \"#utility.yul\":2504:2624   */\n      pop\n      jump\t// out\n        /* \"#utility.yul\":2630:2771   */\n    tag_66:\n        /* \"#utility.yul\":2686:2691   */\n      0x00\n        /* \"#utility.yul\":2717:2723   */\n      dup2\n        /* \"#utility.yul\":2711:2724   */\n      mload\n        /* \"#utility.yul\":2702:2724   */\n      swap1\n      pop\n        /* \"#utility.yul\":2733:2765   */\n      tag_109\n        /* \"#utility.yul\":2759:2764   */\n      dup2\n        /* \"#utility.yul\":2733:2765   */\n      tag_65\n      jump\t// in\n    tag_109:\n        /* \"#utility.yul\":2630:2771   */\n      swap3\n      swap2\n      pop\n      pop\n      jump\t// out\n        /* \"#utility.yul\":2777:2853   */\n    tag_67:\n        /* \"#utility.yul\":2813:2820   */\n      0x00\n        /* \"#utility.yul\":2842:2847   */\n      dup2\n        /* \"#utility.yul\":2831:2847   */\n      swap1\n      pop\n        /* \"#utility.yul\":2777:2853   */\n      swap2\n      swap1\n      pop\n      jump\t// out\n        /* \"#utility.yul\":2859:2979   */\n    tag_68:\n        /* \"#utility.yul\":2931:2954   */\n      tag_112\n        /* \"#utility.yul\":2948:2953   */\n      dup2\n        /* \"#utility.yul\":2931:2954   */\n      tag_67\n      jump\t// in\n    tag_112:\n        /* \"#utility.yul\":2924:2929   */\n      dup2\n        /* \"#utility.yul\":2921:2955   */\n      eq\n        /* \"#utility.yul\":2911:2973   */\n      tag_113\n      jumpi\n        /* \"#utility.yul\":2969:2970   */\n      0x00\n        /* \"#utility.yul\":2966:2967   */\n      dup1\n        /* \"#utility.yul\":2959:2971   */\n      revert\n        /* \"#utility.yul\":2911:2973   */\n    tag_113:\n        /* \"#utility.yul\":2859:2979   */\n      pop\n      jump\t// out\n        /* \"#utility.yul\":2985:3126   */\n    tag_69:\n        /* \"#utility.yul\":3041:3046   */\n      0x00\n        /* \"#utility.yul\":3072:3078   */\n      dup2\n        /* \"#utility.yul\":3066:3079   */\n      mload\n        /* \"#utility.yul\":3057:3079   */\n      swap1\n      pop\n        /* \"#utility.yul\":3088:3120   */\n      tag_115\n        /* \"#utility.yul\":3114:3119   */\n      dup2\n        /* \"#utility.yul\":3088:3120   */\n      tag_68\n      jump\t// in\n    tag_115:\n        /* \"#utility.yul\":2985:3126   */\n      swap3\n      swap2\n      pop\n      pop\n      jump\t// out\n        /* \"#utility.yul\":3132:3275   */\n    tag_70:\n        /* \"#utility.yul\":3189:3194   */\n      0x00\n        /* \"#utility.yul\":3220:3226   */\n      dup2\n        /* \"#utility.yul\":3214:3227   */\n      mload\n        /* \"#utility.yul\":3205:3227   */\n      swap1\n      pop\n        /* \"#utility.yul\":3236:3269   */\n      tag_117\n        /* \"#utility.yul\":3263:3268   */\n      dup2\n        /* \"#utility.yul\":3236:3269   */\n      tag_60\n      jump\t// in\n    tag_117:\n        /* \"#utility.yul\":3132:3275   */\n      swap3\n      swap2\n      pop\n      pop\n      jump\t// out\n        /* \"#utility.yul\":3281:4252   */\n    tag_32:\n        /* \"#utility.yul\":3384:3390   */\n      0x00\n        /* \"#utility.yul\":3392:3398   */\n      dup1\n        /* \"#utility.yul\":3400:3406   */\n      0x00\n        /* \"#utility.yul\":3408:3414   */\n      dup1\n        /* \"#utility.yul\":3416:3422   */\n      0x00\n        /* \"#utility.yul\":3465:3468   */\n      0xa0\n        /* \"#utility.yul\":3453:3462   */\n      dup7\n        /* \"#utility.yul\":3444:3451   */\n      dup9\n        /* \"#utility.yul\":3440:3463   */\n      sub\n        /* \"#utility.yul\":3436:3469   */\n      slt\n        /* \"#utility.yul\":3433:3553   */\n      iszero\n      tag_119\n      jumpi\n        /* \"#utility.yul\":3472:3551   */\n      tag_120\n      tag_58\n      jump\t// in\n    tag_120:\n        /* \"#utility.yul\":3433:3553   */\n    tag_119:\n        /* \"#utility.yul\":3592:3593   */\n      0x00\n        /* \"#utility.yul\":3617:3680   */\n      tag_121\n        /* \"#utility.yul\":3672:3679   */\n      dup9\n        /* \"#utility.yul\":3663:3669   */\n      dup3\n        /* \"#utility.yul\":3652:3661   */\n      dup10\n        /* \"#utility.yul\":3648:3670   */\n      add\n        /* \"#utility.yul\":3617:3680   */\n      tag_66\n      jump\t// in\n    tag_121:\n        /* \"#utility.yul\":3607:3680   */\n      swap6\n      pop\n        /* \"#utility.yul\":3563:3690   */\n      pop\n        /* \"#utility.yul\":3729:3731   */\n      0x20\n        /* \"#utility.yul\":3755:3818   */\n      tag_122\n        /* \"#utility.yul\":3810:3817   */\n      dup9\n        /* \"#utility.yul\":3801:3807   */\n      dup3\n        /* \"#utility.yul\":3790:3799   */\n      dup10\n        /* \"#utility.yul\":3786:3808   */\n      add\n        /* \"#utility.yul\":3755:3818   */\n      tag_69\n      jump\t// in\n    tag_122:\n        /* \"#utility.yul\":3745:3818   */\n      swap5\n      pop\n        /* \"#utility.yul\":3700:3828   */\n      pop\n        /* \"#utility.yul\":3867:3869   */\n      0x40\n        /* \"#utility.yul\":3893:3957   */\n      tag_123\n        /* \"#utility.yul\":3949:3956   */\n      dup9\n        /* \"#utility.yul\":3940:3946   */\n      dup3\n        /* \"#utility.yul\":3929:3938   */\n      dup10\n        /* \"#utility.yul\":3925:3947   */\n      add\n        /* \"#utility.yul\":3893:3957   */\n      tag_70\n      jump\t// in\n    tag_123:\n        /* \"#utility.yul\":3883:3957   */\n      swap4\n      pop\n        /* \"#utility.yul\":3838:3967   */\n      pop\n        /* \"#utility.yul\":4006:4008   */\n      0x60\n        /* \"#utility.yul\":4032:4096   */\n      tag_124\n        /* \"#utility.yul\":4088:4095   */\n      dup9\n        /* \"#utility.yul\":4079:4085   */\n      dup3\n        /* \"#utility.yul\":4068:4077   */\n      dup10\n        /* \"#utility.yul\":4064:4086   */\n      add\n        /* \"#utility.yul\":4032:4096   */\n      tag_70\n      jump\t// in\n    tag_124:\n        /* \"#utility.yul\":4022:4096   */\n      swap3\n      pop\n        /* \"#utility.yul\":3977:4106   */\n      pop\n        /* \"#utility.yul\":4145:4148   */\n      0x80\n        /* \"#utility.yul\":4172:4235   */\n      tag_125\n        /* \"#utility.yul\":4227:4234   */\n      dup9\n        /* \"#utility.yul\":4218:4224   */\n      dup3\n        /* \"#utility.yul\":4207:4216   */\n      dup10\n        /* \"#utility.yul\":4203:4225   */\n      add\n        /* \"#utility.yul\":4172:4235   */\n      tag_66\n      jump\t// in\n    tag_125:\n        /* \"#utility.yul\":4162:4235   */\n      swap2\n      pop\n        /* \"#utility.yul\":4116:4245   */\n      pop\n        /* \"#utility.yul\":3281:4252   */\n      swap3\n      swap6\n      pop\n      swap3\n      swap6\n      swap1\n      swap4\n      pop\n      jump\t// out\n        /* \"#utility.yul\":4258:4438   */\n    tag_71:\n        /* \"#utility.yul\":4306:4383   */\n      0x4e487b7100000000000000000000000000000000000000000000000000000000\n        /* \"#utility.yul\":4303:4304   */\n      0x00\n        /* \"#utility.yul\":4296:4384   */\n      mstore\n        /* \"#utility.yul\":4403:4407   */\n      0x11\n        /* \"#utility.yul\":4400:4401   */\n      0x04\n        /* \"#utility.yul\":4393:4408   */\n      mstore\n        /* \"#utility.yul\":4427:4431   */\n      0x24\n        /* \"#utility.yul\":4424:4425   */\n      0x00\n        /* \"#utility.yul\":4417:4432   */\n      revert\n        /* \"#utility.yul\":4444:4854   */\n    tag_39:\n        /* \"#utility.yul\":4484:4491   */\n      0x00\n        /* \"#utility.yul\":4507:4527   */\n      tag_128\n        /* \"#utility.yul\":4525:4526   */\n      dup3\n        /* \"#utility.yul\":4507:4527   */\n      tag_52\n      jump\t// in\n    tag_128:\n        /* \"#utility.yul\":4502:4527   */\n      swap2\n      pop\n        /* \"#utility.yul\":4541:4561   */\n      tag_129\n        /* \"#utility.yul\":4559:4560   */\n      dup4\n        /* \"#utility.yul\":4541:4561   */\n      tag_52\n      jump\t// in\n    tag_129:\n        /* \"#utility.yul\":4536:4561   */\n      swap3\n      pop\n        /* \"#utility.yul\":4596:4597   */\n      dup3\n        /* \"#utility.yul\":4593:4594   */\n      dup3\n        /* \"#utility.yul\":4589:4598   */\n      mul\n        /* \"#utility.yul\":4618:4648   */\n      tag_130\n        /* \"#utility.yul\":4636:4647   */\n      dup2\n        /* \"#utility.yul\":4618:4648   */\n      tag_52\n      jump\t// in\n    tag_130:\n        /* \"#utility.yul\":4607:4648   */\n      swap2\n      pop\n        /* \"#utility.yul\":4797:4798   */\n      dup3\n        /* \"#utility.yul\":4788:4795   */\n      dup3\n        /* \"#utility.yul\":4784:4799   */\n      div\n        /* \"#utility.yul\":4781:4782   */\n      dup5\n        /* \"#utility.yul\":4778:4800   */\n      eq\n        /* \"#utility.yul\":4758:4759   */\n      dup4\n        /* \"#utility.yul\":4751:4760   */\n      iszero\n        /* \"#utility.yul\":4731:4814   */\n      or\n        /* \"#utility.yul\":4708:4847   */\n      tag_131\n      jumpi\n        /* \"#utility.yul\":4827:4845   */\n      tag_132\n      tag_71\n      jump\t// in\n    tag_132:\n        /* \"#utility.yul\":4708:4847   */\n    tag_131:\n        /* \"#utility.yul\":4492:4854   */\n      pop\n        /* \"#utility.yul\":4444:4854   */\n      swap3\n      swap2\n      pop\n      pop\n      jump\t// out\n        /* \"#utility.yul\":4860:5051   */\n    tag_41:\n        /* \"#utility.yul\":4900:4903   */\n      0x00\n        /* \"#utility.yul\":4919:4939   */\n      tag_134\n        /* \"#utility.yul\":4937:4938   */\n      dup3\n        /* \"#utility.yul\":4919:4939   */\n      tag_52\n      jump\t// in\n    tag_134:\n        /* \"#utility.yul\":4914:4939   */\n      swap2\n      pop\n        /* \"#utility.yul\":4953:4973   */\n      tag_135\n        /* \"#utility.yul\":4971:4972   */\n      dup4\n        /* \"#utility.yul\":4953:4973   */\n      tag_52\n      jump\t// in\n    tag_135:\n        /* \"#utility.yul\":4948:4973   */\n      swap3\n      pop\n        /* \"#utility.yul\":4996:4997   */\n      dup3\n        /* \"#utility.yul\":4993:4994   */\n      dup3\n        /* \"#utility.yul\":4989:4998   */\n      add\n        /* \"#utility.yul\":4982:4998   */\n      swap1\n      pop\n        /* \"#utility.yul\":5017:5020   */\n      dup1\n        /* \"#utility.yul\":5014:5015   */\n      dup3\n        /* \"#utility.yul\":5011:5021   */\n      gt\n        /* \"#utility.yul\":5008:5044   */\n      iszero\n      tag_136\n      jumpi\n        /* \"#utility.yul\":5024:5042   */\n      tag_137\n      tag_71\n      jump\t// in\n    tag_137:\n        /* \"#utility.yul\":5008:5044   */\n    tag_136:\n        /* \"#utility.yul\":4860:5051   */\n      swap3\n      swap2\n      pop\n      pop\n      jump\t// out\n        /* \"#utility.yul\":5057:5251   */\n    tag_44:\n        /* \"#utility.yul\":5097:5101   */\n      0x00\n        /* \"#utility.yul\":5117:5137   */\n      tag_139\n        /* \"#utility.yul\":5135:5136   */\n      dup3\n        /* \"#utility.yul\":5117:5137   */\n      tag_52\n      jump\t// in\n    tag_139:\n        /* \"#utility.yul\":5112:5137   */\n      swap2\n      pop\n        /* \"#utility.yul\":5151:5171   */\n      tag_140\n        /* \"#utility.yul\":5169:5170   */\n      dup4\n        /* \"#utility.yul\":5151:5171   */\n      tag_52\n      jump\t// in\n    tag_140:\n        /* \"#utility.yul\":5146:5171   */\n      swap3\n      pop\n        /* \"#utility.yul\":5195:5196   */\n      dup3\n        /* \"#utility.yul\":5192:5193   */\n      dup3\n        /* \"#utility.yul\":5188:5197   */\n      sub\n        /* \"#utility.yul\":5180:5197   */\n      swap1\n      pop\n        /* \"#utility.yul\":5219:5220   */\n      dup2\n        /* \"#utility.yul\":5213:5217   */\n      dup2\n        /* \"#utility.yul\":5210:5221   */\n      gt\n        /* \"#utility.yul\":5207:5244   */\n      iszero\n      tag_141\n      jumpi\n        /* \"#utility.yul\":5224:5242   */\n      tag_142\n      tag_71\n      jump\t// in\n    tag_142:\n        /* \"#utility.yul\":5207:5244   */\n    tag_141:\n        /* \"#utility.yul\":5057:5251   */\n      swap3\n      swap2\n      pop\n      pop\n      jump\t// out\n        /* \"#utility.yul\":5257:5375   */\n    tag_72:\n        /* \"#utility.yul\":5328:5350   */\n      tag_144\n        /* \"#utility.yul\":5344:5349   */\n      dup2\n        /* \"#utility.yul\":5328:5350   */\n      tag_62\n      jump\t// in\n    tag_144:\n        /* \"#utility.yul\":5321:5326   */\n      dup2\n        /* \"#utility.yul\":5318:5351   */\n      eq\n        /* \"#utility.yul\":5308:5369   */\n      tag_145\n      jumpi\n        /* \"#utility.yul\":5365:5366   */\n      0x00\n        /* \"#utility.yul\":5362:5363   */\n      dup1\n        /* \"#utility.yul\":5355:5367   */\n      revert\n        /* \"#utility.yul\":5308:5369   */\n    tag_145:\n        /* \"#utility.yul\":5257:5375   */\n      pop\n      jump\t// out\n        /* \"#utility.yul\":5381:5520   */\n    tag_73:\n        /* \"#utility.yul\":5436:5441   */\n      0x00\n        /* \"#utility.yul\":5467:5473   */\n      dup2\n        /* \"#utility.yul\":5461:5474   */\n      mload\n        /* \"#utility.yul\":5452:5474   */\n      swap1\n      pop\n        /* \"#utility.yul\":5483:5514   */\n      tag_147\n        /* \"#utility.yul\":5508:5513   */\n      dup2\n        /* \"#utility.yul\":5483:5514   */\n      tag_72\n      jump\t// in\n    tag_147:\n        /* \"#utility.yul\":5381:5520   */\n      swap3\n      swap2\n      pop\n      pop\n      jump\t// out\n        /* \"#utility.yul\":5526:5873   */\n    tag_51:\n        /* \"#utility.yul\":5594:5600   */\n      0x00\n        /* \"#utility.yul\":5643:5645   */\n      0x20\n        /* \"#utility.yul\":5631:5640   */\n      dup3\n        /* \"#utility.yul\":5622:5629   */\n      dup5\n        /* \"#utility.yul\":5618:5641   */\n      sub\n        /* \"#utility.yul\":5614:5646   */\n      slt\n        /* \"#utility.yul\":5611:5730   */\n      iszero\n      tag_149\n      jumpi\n        /* \"#utility.yul\":5649:5728   */\n      tag_150\n      tag_58\n      jump\t// in\n    tag_150:\n        /* \"#utility.yul\":5611:5730   */\n    tag_149:\n        /* \"#utility.yul\":5769:5770   */\n      0x00\n        /* \"#utility.yul\":5794:5856   */\n      tag_151\n        /* \"#utility.yul\":5848:5855   */\n      dup5\n        /* \"#utility.yul\":5839:5845   */\n      dup3\n        /* \"#utility.yul\":5828:5837   */\n      dup6\n        /* \"#utility.yul\":5824:5846   */\n      add\n        /* \"#utility.yul\":5794:5856   */\n      tag_73\n      jump\t// in\n    tag_151:\n        /* \"#utility.yul\":5784:5856   */\n      swap2\n      pop\n        /* \"#utility.yul\":5740:5866   */\n      pop\n        /* \"#utility.yul\":5526:5873   */\n      swap3\n      swap2\n      pop\n      pop\n      jump\t// out\n\n    auxdata: 0xa26469706673582212205f48fa7abcef2a81875204f057b0539ef4be2c9b11dfe59e2307d87cf72edf0564736f6c63430008140033\n}\n",
				"bytecode": {
					"linkReferences": {},
					"object": "60a060405234801561000f575f80fd5b5060405161076d38038061076d833981810160405281019061003191906100c9565b8073ffffffffffffffffffffffffffffffffffffffff1660808173ffffffffffffffffffffffffffffffffffffffff1681525050506100f4565b5f80fd5b5f73ffffffffffffffffffffffffffffffffffffffff82169050919050565b5f6100988261006f565b9050919050565b6100a88161008e565b81146100b2575f80fd5b50565b5f815190506100c38161009f565b92915050565b5f602082840312156100de576100dd61006b565b5b5f6100eb848285016100b5565b91505092915050565b60805161065361011a5f395f818161010a015281816101a5015261025101526106535ff3fe608060405234801561000f575f80fd5b5060043610610055575f3560e01c80638c6481171461005957806398d5fdca146100775780639e87a5cd14610095578063e8e4424a146100b3578063f0141d84146100e3575b5f80fd5b610061610101565b60405161006e91906102f9565b60405180910390f35b61007f610106565b60405161008c91906102f9565b60405180910390f35b61009d6101a2565b6040516100aa9190610351565b60405180910390f35b6100cd60048036038101906100c89190610398565b6101c9565b6040516100da91906102f9565b60405180910390f35b6100eb61024e565b6040516100f891906103de565b60405180910390f35b5f5481565b5f807f000000000000000000000000000000000000000000000000000000000000000073ffffffffffffffffffffffffffffffffffffffff1663feaf968c6040518163ffffffff1660e01b815260040160a060405180830381865afa158015610171573d5f803e3d5ffd5b505050506040513d601f19601f82011682018060405250810190610195919061047d565b5050509150508091505090565b5f7f0000000000000000000000000000000000000000000000000000000000000000905090565b5f6101d2610106565b5f8190555060086101e161024e565b60ff16036102015764174876e8005f546101fb9190610521565b5f819055505b816729a2241af62c00005f546102179190610562565b1180156102375750816729a2241af62c00005f546102359190610595565b105b610244575f549050610249565b5f5490505b919050565b5f7f000000000000000000000000000000000000000000000000000000000000000073ffffffffffffffffffffffffffffffffffffffff1663313ce5676040518163ffffffff1660e01b8152600401602060405180830381865afa1580156102b8573d5f803e3d5ffd5b505050506040513d601f19601f820116820180604052508101906102dc91906105f2565b905090565b5f819050919050565b6102f3816102e1565b82525050565b5f60208201905061030c5f8301846102ea565b92915050565b5f73ffffffffffffffffffffffffffffffffffffffff82169050919050565b5f61033b82610312565b9050919050565b61034b81610331565b82525050565b5f6020820190506103645f830184610342565b92915050565b5f80fd5b610377816102e1565b8114610381575f80fd5b50565b5f813590506103928161036e565b92915050565b5f602082840312156103ad576103ac61036a565b5b5f6103ba84828501610384565b91505092915050565b5f60ff82169050919050565b6103d8816103c3565b82525050565b5f6020820190506103f15f8301846103cf565b92915050565b5f69ffffffffffffffffffff82169050919050565b610415816103f7565b811461041f575f80fd5b50565b5f815190506104308161040c565b92915050565b5f819050919050565b61044881610436565b8114610452575f80fd5b50565b5f815190506104638161043f565b92915050565b5f815190506104778161036e565b92915050565b5f805f805f60a086880312156104965761049561036a565b5b5f6104a388828901610422565b95505060206104b488828901610455565b94505060406104c588828901610469565b93505060606104d688828901610469565b92505060806104e788828901610422565b9150509295509295909350565b7f4e487b71000000000000000000000000000000000000000000000000000000005f52601160045260245ffd5b5f61052b826102e1565b9150610536836102e1565b9250828202610544816102e1565b9150828204841483151761055b5761055a6104f4565b5b5092915050565b5f61056c826102e1565b9150610577836102e1565b925082820190508082111561058f5761058e6104f4565b5b92915050565b5f61059f826102e1565b91506105aa836102e1565b92508282039050818111156105c2576105c16104f4565b5b92915050565b6105d1816103c3565b81146105db575f80fd5b50565b5f815190506105ec816105c8565b92915050565b5f602082840312156106075761060661036a565b5b5f610614848285016105de565b9150509291505056fea26469706673582212205f48fa7abcef2a81875204f057b0539ef4be2c9b11dfe59e2307d87cf72edf0564736f6c63430008140033",
					"opcodes": "PUSH1 0xA0 PUSH1 0x40 MSTORE CALLVALUE DUP1 ISZERO PUSH2 0xF JUMPI PUSH0 DUP1 REVERT JUMPDEST POP PUSH1 0x40 MLOAD PUSH2 0x76D CODESIZE SUB DUP1 PUSH2 0x76D DUP4 CODECOPY DUP2 DUP2 ADD PUSH1 0x40 MSTORE DUP2 ADD SWAP1 PUSH2 0x31 SWAP2 SWAP1 PUSH2 0xC9 JUMP JUMPDEST DUP1 PUSH20 0xFFFFFFFFFFFFFFFFFFFFFFFFFFFFFFFFFFFFFFFF AND PUSH1 0x80 DUP2 PUSH20 0xFFFFFFFFFFFFFFFFFFFFFFFFFFFFFFFFFFFFFFFF AND DUP2 MSTORE POP POP POP PUSH2 0xF4 JUMP JUMPDEST PUSH0 DUP1 REVERT JUMPDEST PUSH0 PUSH20 0xFFFFFFFFFFFFFFFFFFFFFFFFFFFFFFFFFFFFFFFF DUP3 AND SWAP1 POP SWAP2 SWAP1 POP JUMP JUMPDEST PUSH0 PUSH2 0x98 DUP3 PUSH2 0x6F JUMP JUMPDEST SWAP1 POP SWAP2 SWAP1 POP JUMP JUMPDEST PUSH2 0xA8 DUP2 PUSH2 0x8E JUMP JUMPDEST DUP2 EQ PUSH2 0xB2 JUMPI PUSH0 DUP1 REVERT JUMPDEST POP JUMP JUMPDEST PUSH0 DUP2 MLOAD SWAP1 POP PUSH2 0xC3 DUP2 PUSH2 0x9F JUMP JUMPDEST SWAP3 SWAP2 POP POP JUMP JUMPDEST PUSH0 PUSH1 0x20 DUP3 DUP5 SUB SLT ISZERO PUSH2 0xDE JUMPI PUSH2 0xDD PUSH2 0x6B JUMP JUMPDEST JUMPDEST PUSH0 PUSH2 0xEB DUP5 DUP3 DUP6 ADD PUSH2 0xB5 JUMP JUMPDEST SWAP2 POP POP SWAP3 SWAP2 POP POP JUMP JUMPDEST PUSH1 0x80 MLOAD PUSH2 0x653 PUSH2 0x11A PUSH0 CODECOPY PUSH0 DUP2 DUP2 PUSH2 0x10A ADD MSTORE DUP2 DUP2 PUSH2 0x1A5 ADD MSTORE PUSH2 0x251 ADD MSTORE PUSH2 0x653 PUSH0 RETURN INVALID PUSH1 0x80 PUSH1 0x40 MSTORE CALLVALUE DUP1 ISZERO PUSH2 0xF JUMPI PUSH0 DUP1 REVERT JUMPDEST POP PUSH1 0x4 CALLDATASIZE LT PUSH2 0x55 JUMPI PUSH0 CALLDATALOAD PUSH1 0xE0 SHR DUP1 PUSH4 0x8C648117 EQ PUSH2 0x59 JUMPI DUP1 PUSH4 0x98D5FDCA EQ PUSH2 0x77 JUMPI DUP1 PUSH4 0x9E87A5CD EQ PUSH2 0x95 JUMPI DUP1 PUSH4 0xE8E4424A EQ PUSH2 0xB3 JUMPI DUP1 PUSH4 0xF0141D84 EQ PUSH2 0xE3 JUMPI JUMPDEST PUSH0 DUP1 REVERT JUMPDEST PUSH2 0x61 PUSH2 0x101 JUMP JUMPDEST PUSH1 0x40 MLOAD PUSH2 0x6E SWAP2 SWAP1 PUSH2 0x2F9 JUMP JUMPDEST PUSH1 0x40 MLOAD DUP1 SWAP2 SUB SWAP1 RETURN JUMPDEST PUSH2 0x7F PUSH2 0x106 JUMP JUMPDEST PUSH1 0x40 MLOAD PUSH2 0x8C SWAP2 SWAP1 PUSH2 0x2F9 JUMP JUMPDEST PUSH1 0x40 MLOAD DUP1 SWAP2 SUB SWAP1 RETURN JUMPDEST PUSH2 0x9D PUSH2 0x1A2 JUMP JUMPDEST PUSH1 0x40 MLOAD PUSH2 0xAA SWAP2 SWAP1 PUSH2 0x351 JUMP JUMPDEST PUSH1 0x40 MLOAD DUP1 SWAP2 SUB SWAP1 RETURN JUMPDEST PUSH2 0xCD PUSH1 0x4 DUP1 CALLDATASIZE SUB DUP2 ADD SWAP1 PUSH2 0xC8 SWAP2 SWAP1 PUSH2 0x398 JUMP JUMPDEST PUSH2 0x1C9 JUMP JUMPDEST PUSH1 0x40 MLOAD PUSH2 0xDA SWAP2 SWAP1 PUSH2 0x2F9 JUMP JUMPDEST PUSH1 0x40 MLOAD DUP1 SWAP2 SUB SWAP1 RETURN JUMPDEST PUSH2 0xEB PUSH2 0x24E JUMP JUMPDEST PUSH1 0x40 MLOAD PUSH2 0xF8 SWAP2 SWAP1 PUSH2 0x3DE JUMP JUMPDEST PUSH1 0x40 MLOAD DUP1 SWAP2 SUB SWAP1 RETURN JUMPDEST PUSH0 SLOAD DUP2 JUMP JUMPDEST PUSH0 DUP1 PUSH32 0x0 PUSH20 0xFFFFFFFFFFFFFFFFFFFFFFFFFFFFFFFFFFFFFFFF AND PUSH4 0xFEAF968C PUSH1 0x40 MLOAD DUP2 PUSH4 0xFFFFFFFF AND PUSH1 0xE0 SHL DUP2 MSTORE PUSH1 0x4 ADD PUSH1 0xA0 PUSH1 0x40 MLOAD DUP1 DUP4 SUB DUP2 DUP7 GAS STATICCALL ISZERO DUP1 ISZERO PUSH2 0x171 JUMPI RETURNDATASIZE PUSH0 DUP1 RETURNDATACOPY RETURNDATASIZE PUSH0 REVERT JUMPDEST POP POP POP POP PUSH1 0x40 MLOAD RETURNDATASIZE PUSH1 0x1F NOT PUSH1 0x1F DUP3 ADD AND DUP3 ADD DUP1 PUSH1 0x40 MSTORE POP DUP2 ADD SWAP1 PUSH2 0x195 SWAP2 SWAP1 PUSH2 0x47D JUMP JUMPDEST POP POP POP SWAP2 POP POP DUP1 SWAP2 POP POP SWAP1 JUMP JUMPDEST PUSH0 PUSH32 0x0 SWAP1 POP SWAP1 JUMP JUMPDEST PUSH0 PUSH2 0x1D2 PUSH2 0x106 JUMP JUMPDEST PUSH0 DUP2 SWAP1 SSTORE POP PUSH1 0x8 PUSH2 0x1E1 PUSH2 0x24E JUMP JUMPDEST PUSH1 0xFF AND SUB PUSH2 0x201 JUMPI PUSH5 0x174876E800 PUSH0 SLOAD PUSH2 0x1FB SWAP2 SWAP1 PUSH2 0x521 JUMP JUMPDEST PUSH0 DUP2 SWAP1 SSTORE POP JUMPDEST DUP2 PUSH8 0x29A2241AF62C0000 PUSH0 SLOAD PUSH2 0x217 SWAP2 SWAP1 PUSH2 0x562 JUMP JUMPDEST GT DUP1 ISZERO PUSH2 0x237 JUMPI POP DUP2 PUSH8 0x29A2241AF62C0000 PUSH0 SLOAD PUSH2 0x235 SWAP2 SWAP1 PUSH2 0x595 JUMP JUMPDEST LT JUMPDEST PUSH2 0x244 JUMPI PUSH0 SLOAD SWAP1 POP PUSH2 0x249 JUMP JUMPDEST PUSH0 SLOAD SWAP1 POP JUMPDEST SWAP2 SWAP1 POP JUMP JUMPDEST PUSH0 PUSH32 0x0 PUSH20 0xFFFFFFFFFFFFFFFFFFFFFFFFFFFFFFFFFFFFFFFF AND PUSH4 0x313CE567 PUSH1 0x40 MLOAD DUP2 PUSH4 0xFFFFFFFF AND PUSH1 0xE0 SHL DUP2 MSTORE PUSH1 0x4 ADD PUSH1 0x20 PUSH1 0x40 MLOAD DUP1 DUP4 SUB DUP2 DUP7 GAS STATICCALL ISZERO DUP1 ISZERO PUSH2 0x2B8 JUMPI RETURNDATASIZE PUSH0 DUP1 RETURNDATACOPY RETURNDATASIZE PUSH0 REVERT JUMPDEST POP POP POP POP PUSH1 0x40 MLOAD RETURNDATASIZE PUSH1 0x1F NOT PUSH1 0x1F DUP3 ADD AND DUP3 ADD DUP1 PUSH1 0x40 MSTORE POP DUP2 ADD SWAP1 PUSH2 0x2DC SWAP2 SWAP1 PUSH2 0x5F2 JUMP JUMPDEST SWAP1 POP SWAP1 JUMP JUMPDEST PUSH0 DUP2 SWAP1 POP SWAP2 SWAP1 POP JUMP JUMPDEST PUSH2 0x2F3 DUP2 PUSH2 0x2E1 JUMP JUMPDEST DUP3 MSTORE POP POP JUMP JUMPDEST PUSH0 PUSH1 0x20 DUP3 ADD SWAP1 POP PUSH2 0x30C PUSH0 DUP4 ADD DUP5 PUSH2 0x2EA JUMP JUMPDEST SWAP3 SWAP2 POP POP JUMP JUMPDEST PUSH0 PUSH20 0xFFFFFFFFFFFFFFFFFFFFFFFFFFFFFFFFFFFFFFFF DUP3 AND SWAP1 POP SWAP2 SWAP1 POP JUMP JUMPDEST PUSH0 PUSH2 0x33B DUP3 PUSH2 0x312 JUMP JUMPDEST SWAP1 POP SWAP2 SWAP1 POP JUMP JUMPDEST PUSH2 0x34B DUP2 PUSH2 0x331 JUMP JUMPDEST DUP3 MSTORE POP POP JUMP JUMPDEST PUSH0 PUSH1 0x20 DUP3 ADD SWAP1 POP PUSH2 0x364 PUSH0 DUP4 ADD DUP5 PUSH2 0x342 JUMP JUMPDEST SWAP3 SWAP2 POP POP JUMP JUMPDEST PUSH0 DUP1 REVERT JUMPDEST PUSH2 0x377 DUP2 PUSH2 0x2E1 JUMP JUMPDEST DUP2 EQ PUSH2 0x381 JUMPI PUSH0 DUP1 REVERT JUMPDEST POP JUMP JUMPDEST PUSH0 DUP2 CALLDATALOAD SWAP1 POP PUSH2 0x392 DUP2 PUSH2 0x36E JUMP JUMPDEST SWAP3 SWAP2 POP POP JUMP JUMPDEST PUSH0 PUSH1 0x20 DUP3 DUP5 SUB SLT ISZERO PUSH2 0x3AD JUMPI PUSH2 0x3AC PUSH2 0x36A JUMP JUMPDEST JUMPDEST PUSH0 PUSH2 0x3BA DUP5 DUP3 DUP6 ADD PUSH2 0x384 JUMP JUMPDEST SWAP2 POP POP SWAP3 SWAP2 POP POP JUMP JUMPDEST PUSH0 PUSH1 0xFF DUP3 AND SWAP1 POP SWAP2 SWAP1 POP JUMP JUMPDEST PUSH2 0x3D8 DUP2 PUSH2 0x3C3 JUMP JUMPDEST DUP3 MSTORE POP POP JUMP JUMPDEST PUSH0 PUSH1 0x20 DUP3 ADD SWAP1 POP PUSH2 0x3F1 PUSH0 DUP4 ADD DUP5 PUSH2 0x3CF JUMP JUMPDEST SWAP3 SWAP2 POP POP JUMP JUMPDEST PUSH0 PUSH10 0xFFFFFFFFFFFFFFFFFFFF DUP3 AND SWAP1 POP SWAP2 SWAP1 POP JUMP JUMPDEST PUSH2 0x415 DUP2 PUSH2 0x3F7 JUMP JUMPDEST DUP2 EQ PUSH2 0x41F JUMPI PUSH0 DUP1 REVERT JUMPDEST POP JUMP JUMPDEST PUSH0 DUP2 MLOAD SWAP1 POP PUSH2 0x430 DUP2 PUSH2 0x40C JUMP JUMPDEST SWAP3 SWAP2 POP POP JUMP JUMPDEST PUSH0 DUP2 SWAP1 POP SWAP2 SWAP1 POP JUMP JUMPDEST PUSH2 0x448 DUP2 PUSH2 0x436 JUMP JUMPDEST DUP2 EQ PUSH2 0x452 JUMPI PUSH0 DUP1 REVERT JUMPDEST POP JUMP JUMPDEST PUSH0 DUP2 MLOAD SWAP1 POP PUSH2 0x463 DUP2 PUSH2 0x43F JUMP JUMPDEST SWAP3 SWAP2 POP POP JUMP JUMPDEST PUSH0 DUP2 MLOAD SWAP1 POP PUSH2 0x477 DUP2 PUSH2 0x36E JUMP JUMPDEST SWAP3 SWAP2 POP POP JUMP JUMPDEST PUSH0 DUP1 PUSH0 DUP1 PUSH0 PUSH1 0xA0 DUP7 DUP9 SUB SLT ISZERO PUSH2 0x496 JUMPI PUSH2 0x495 PUSH2 0x36A JUMP JUMPDEST JUMPDEST PUSH0 PUSH2 0x4A3 DUP9 DUP3 DUP10 ADD PUSH2 0x422 JUMP JUMPDEST SWAP6 POP POP PUSH1 0x20 PUSH2 0x4B4 DUP9 DUP3 DUP10 ADD PUSH2 0x455 JUMP JUMPDEST SWAP5 POP POP PUSH1 0x40 PUSH2 0x4C5 DUP9 DUP3 DUP10 ADD PUSH2 0x469 JUMP JUMPDEST SWAP4 POP POP PUSH1 0x60 PUSH2 0x4D6 DUP9 DUP3 DUP10 ADD PUSH2 0x469 JUMP JUMPDEST SWAP3 POP POP PUSH1 0x80 PUSH2 0x4E7 DUP9 DUP3 DUP10 ADD PUSH2 0x422 JUMP JUMPDEST SWAP2 POP POP SWAP3 SWAP6 POP SWAP3 SWAP6 SWAP1 SWAP4 POP JUMP JUMPDEST PUSH32 0x4E487B7100000000000000000000000000000000000000000000000000000000 PUSH0 MSTORE PUSH1 0x11 PUSH1 0x4 MSTORE PUSH1 0x24 PUSH0 REVERT JUMPDEST PUSH0 PUSH2 0x52B DUP3 PUSH2 0x2E1 JUMP JUMPDEST SWAP2 POP PUSH2 0x536 DUP4 PUSH2 0x2E1 JUMP JUMPDEST SWAP3 POP DUP3 DUP3 MUL PUSH2 0x544 DUP2 PUSH2 0x2E1 JUMP JUMPDEST SWAP2 POP DUP3 DUP3 DIV DUP5 EQ DUP4 ISZERO OR PUSH2 0x55B JUMPI PUSH2 0x55A PUSH2 0x4F4 JUMP JUMPDEST JUMPDEST POP SWAP3 SWAP2 POP POP JUMP JUMPDEST PUSH0 PUSH2 0x56C DUP3 PUSH2 0x2E1 JUMP JUMPDEST SWAP2 POP PUSH2 0x577 DUP4 PUSH2 0x2E1 JUMP JUMPDEST SWAP3 POP DUP3 DUP3 ADD SWAP1 POP DUP1 DUP3 GT ISZERO PUSH2 0x58F JUMPI PUSH2 0x58E PUSH2 0x4F4 JUMP JUMPDEST JUMPDEST SWAP3 SWAP2 POP POP JUMP JUMPDEST PUSH0 PUSH2 0x59F DUP3 PUSH2 0x2E1 JUMP JUMPDEST SWAP2 POP PUSH2 0x5AA DUP4 PUSH2 0x2E1 JUMP JUMPDEST SWAP3 POP DUP3 DUP3 SUB SWAP1 POP DUP2 DUP2 GT ISZERO PUSH2 0x5C2 JUMPI PUSH2 0x5C1 PUSH2 0x4F4 JUMP JUMPDEST JUMPDEST SWAP3 SWAP2 POP POP JUMP JUMPDEST PUSH2 0x5D1 DUP2 PUSH2 0x3C3 JUMP JUMPDEST DUP2 EQ PUSH2 0x5DB JUMPI PUSH0 DUP1 REVERT JUMPDEST POP JUMP JUMPDEST PUSH0 DUP2 MLOAD SWAP1 POP PUSH2 0x5EC DUP2 PUSH2 0x5C8 JUMP JUMPDEST SWAP3 SWAP2 POP POP JUMP JUMPDEST PUSH0 PUSH1 0x20 DUP3 DUP5 SUB SLT ISZERO PUSH2 0x607 JUMPI PUSH2 0x606 PUSH2 0x36A JUMP JUMPDEST JUMPDEST PUSH0 PUSH2 0x614 DUP5 DUP3 DUP6 ADD PUSH2 0x5DE JUMP JUMPDEST SWAP2 POP POP SWAP3 SWAP2 POP POP JUMP INVALID LOG2 PUSH5 0x6970667358 0x22 SLT KECCAK256 PUSH0 BASEFEE STATICCALL PUSH27 0xBCEF2A81875204F057B0539EF4BE2C9B11DFE59E2307D87CF72EDF SDIV PUSH5 0x736F6C6343 STOP ADDMOD EQ STOP CALLER "
				},
				"gasEstimates": {
					"creation": {
						"codeDepositCost": "323800",
						"executionCost": "infinite",
						"totalCost": "infinite"
					},
					"external": {
						"actualPrice()": "2402",
						"getDecimals()": "infinite",
						"getPrice()": "infinite",
						"getPriceFeed()": "infinite",
						"solveChallenge(uint256)": "infinite"
					}
				},
				"methodIdentifiers": {
					"actualPrice()": "8c648117",
					"getDecimals()": "f0141d84",
					"getPrice()": "98d5fdca",
					"getPriceFeed()": "9e87a5cd",
					"solveChallenge(uint256)": "e8e4424a"
				}
			},
			"storageLayout": {
				"storage": [
					{
						"astId": 107,
						"contract": "Solidity_Tutorials/lesson-4/quize.sol:LessonFour",
						"label": "actualPrice",
						"offset": 0,
						"slot": "0",
						"type": "t_uint256"
					}
				],
				"types": {
					"t_uint256": {
						"encoding": "inplace",
						"label": "uint256",
						"numberOfBytes": "32"
					}
				}
			},
			"userdoc": {
				"kind": "user",
				"methods": {},
				"version": 1
			}
		}
	}
}