{
	"data": {
		"bytecode": {
			"linkReferences": {},
			"object": "608060405234801561000f575f80fd5b506103ca8061001d5f395ff3fe608060405234801561000f575f80fd5b5060043610610034575f3560e01c80633702a87414610038578063fa45543514610056575b5f80fd5b610040610072565b60405161004d9190610136565b60405180910390f35b610070600480360381019061006b919061029c565b610098565b005b7fb68fe43f0d1a0d7aef123722670be50268e15365401c442f8806ef83b612976b5f1b81565b7fb68fe43f0d1a0d7aef123722670be50268e15365401c442f8806ef83b612976b5f1b826040516020016100cc919061037e565b60405160208183030381529060405280519060200120031561011a576040517f739f607400000000000000000000000000000000000000000000000000000000815260040160405180910390fd5b5050565b5f819050919050565b6101308161011e565b82525050565b5f6020820190506101495f830184610127565b92915050565b5f604051905090565b5f80fd5b5f80fd5b5f80fd5b5f80fd5b5f601f19601f8301169050919050565b7f4e487b71000000000000000000000000000000000000000000000000000000005f52604160045260245ffd5b6101ae82610168565b810181811067ffffffffffffffff821117156101cd576101cc610178565b5b80604052505050565b5f6101df61014f565b90506101eb82826101a5565b919050565b5f67ffffffffffffffff82111561020a57610209610178565b5b61021382610168565b9050602081019050919050565b828183375f83830152505050565b5f61024061023b846101f0565b6101d6565b90508281526020810184848401111561025c5761025b610164565b5b610267848285610220565b509392505050565b5f82601f83011261028357610282610160565b5b813561029384826020860161022e565b91505092915050565b5f80604083850312156102b2576102b1610158565b5b5f83013567ffffffffffffffff8111156102cf576102ce61015c565b5b6102db8582860161026f565b925050602083013567ffffffffffffffff8111156102fc576102fb61015c565b5b6103088582860161026f565b9150509250929050565b5f81519050919050565b5f81905092915050565b5f5b83811015610343578082015181840152602081019050610328565b5f8484015250505050565b5f61035882610312565b610362818561031c565b9350610372818560208601610326565b80840191505092915050565b5f610389828461034e565b91508190509291505056fea264697066735822122082ef93faf3ff766356fd2b1024924534774cb3b0f648893afa3332b2099b3cac64736f6c63430008140033",
			"opcodes": "PUSH1 0x80 PUSH1 0x40 MSTORE CALLVALUE DUP1 ISZERO PUSH2 0xF JUMPI PUSH0 DUP1 REVERT JUMPDEST POP PUSH2 0x3CA DUP1 PUSH2 0x1D PUSH0 CODECOPY PUSH0 RETURN INVALID PUSH1 0x80 PUSH1 0x40 MSTORE CALLVALUE DUP1 ISZERO PUSH2 0xF JUMPI PUSH0 DUP1 REVERT JUMPDEST POP PUSH1 0x4 CALLDATASIZE LT PUSH2 0x34 JUMPI PUSH0 CALLDATALOAD PUSH1 0xE0 SHR DUP1 PUSH4 0x3702A874 EQ PUSH2 0x38 JUMPI DUP1 PUSH4 0xFA455435 EQ PUSH2 0x56 JUMPI JUMPDEST PUSH0 DUP1 REVERT JUMPDEST PUSH2 0x40 PUSH2 0x72 JUMP JUMPDEST PUSH1 0x40 MLOAD PUSH2 0x4D SWAP2 SWAP1 PUSH2 0x136 JUMP JUMPDEST PUSH1 0x40 MLOAD DUP1 SWAP2 SUB SWAP1 RETURN JUMPDEST PUSH2 0x70 PUSH1 0x4 DUP1 CALLDATASIZE SUB DUP2 ADD SWAP1 PUSH2 0x6B SWAP2 SWAP1 PUSH2 0x29C JUMP JUMPDEST PUSH2 0x98 JUMP JUMPDEST STOP JUMPDEST PUSH32 0xB68FE43F0D1A0D7AEF123722670BE50268E15365401C442F8806EF83B612976B PUSH0 SHL DUP2 JUMP JUMPDEST PUSH32 0xB68FE43F0D1A0D7AEF123722670BE50268E15365401C442F8806EF83B612976B PUSH0 SHL DUP3 PUSH1 0x40 MLOAD PUSH1 0x20 ADD PUSH2 0xCC SWAP2 SWAP1 PUSH2 0x37E JUMP JUMPDEST PUSH1 0x40 MLOAD PUSH1 0x20 DUP2 DUP4 SUB SUB DUP2 MSTORE SWAP1 PUSH1 0x40 MSTORE DUP1 MLOAD SWAP1 PUSH1 0x20 ADD KECCAK256 SUB ISZERO PUSH2 0x11A JUMPI PUSH1 0x40 MLOAD PUSH32 0x739F607400000000000000000000000000000000000000000000000000000000 DUP2 MSTORE PUSH1 0x4 ADD PUSH1 0x40 MLOAD DUP1 SWAP2 SUB SWAP1 REVERT JUMPDEST POP POP JUMP JUMPDEST PUSH0 DUP2 SWAP1 POP SWAP2 SWAP1 POP JUMP JUMPDEST PUSH2 0x130 DUP2 PUSH2 0x11E JUMP JUMPDEST DUP3 MSTORE POP POP JUMP JUMPDEST PUSH0 PUSH1 0x20 DUP3 ADD SWAP1 POP PUSH2 0x149 PUSH0 DUP4 ADD DUP5 PUSH2 0x127 JUMP JUMPDEST SWAP3 SWAP2 POP POP JUMP JUMPDEST PUSH0 PUSH1 0x40 MLOAD SWAP1 POP SWAP1 JUMP JUMPDEST PUSH0 DUP1 REVERT JUMPDEST PUSH0 DUP1 REVERT JUMPDEST PUSH0 DUP1 REVERT JUMPDEST PUSH0 DUP1 REVERT JUMPDEST PUSH0 PUSH1 0x1F NOT PUSH1 0x1F DUP4 ADD AND SWAP1 POP SWAP2 SWAP1 POP JUMP JUMPDEST PUSH32 0x4E487B7100000000000000000000000000000000000000000000000000000000 PUSH0 MSTORE PUSH1 0x41 PUSH1 0x4 MSTORE PUSH1 0x24 PUSH0 REVERT JUMPDEST PUSH2 0x1AE DUP3 PUSH2 0x168 JUMP JUMPDEST DUP2 ADD DUP2 DUP2 LT PUSH8 0xFFFFFFFFFFFFFFFF DUP3 GT OR ISZERO PUSH2 0x1CD JUMPI PUSH2 0x1CC PUSH2 0x178 JUMP JUMPDEST JUMPDEST DUP1 PUSH1 0x40 MSTORE POP POP POP JUMP JUMPDEST PUSH0 PUSH2 0x1DF PUSH2 0x14F JUMP JUMPDEST SWAP1 POP PUSH2 0x1EB DUP3 DUP3 PUSH2 0x1A5 JUMP JUMPDEST SWAP2 SWAP1 POP JUMP JUMPDEST PUSH0 PUSH8 0xFFFFFFFFFFFFFFFF DUP3 GT ISZERO PUSH2 0x20A JUMPI PUSH2 0x209 PUSH2 0x178 JUMP JUMPDEST JUMPDEST PUSH2 0x213 DUP3 PUSH2 0x168 JUMP JUMPDEST SWAP1 POP PUSH1 0x20 DUP2 ADD SWAP1 POP SWAP2 SWAP1 POP JUMP JUMPDEST DUP3 DUP2 DUP4 CALLDATACOPY PUSH0 DUP4 DUP4 ADD MSTORE POP POP POP JUMP JUMPDEST PUSH0 PUSH2 0x240 PUSH2 0x23B DUP5 PUSH2 0x1F0 JUMP JUMPDEST PUSH2 0x1D6 JUMP JUMPDEST SWAP1 POP DUP3 DUP2 MSTORE PUSH1 0x20 DUP2 ADD DUP5 DUP5 DUP5 ADD GT ISZERO PUSH2 0x25C JUMPI PUSH2 0x25B PUSH2 0x164 JUMP JUMPDEST JUMPDEST PUSH2 0x267 DUP5 DUP3 DUP6 PUSH2 0x220 JUMP JUMPDEST POP SWAP4 SWAP3 POP POP POP JUMP JUMPDEST PUSH0 DUP3 PUSH1 0x1F DUP4 ADD SLT PUSH2 0x283 JUMPI PUSH2 0x282 PUSH2 0x160 JUMP JUMPDEST JUMPDEST DUP2 CALLDATALOAD PUSH2 0x293 DUP5 DUP3 PUSH1 0x20 DUP7 ADD PUSH2 0x22E JUMP JUMPDEST SWAP2 POP POP SWAP3 SWAP2 POP POP JUMP JUMPDEST PUSH0 DUP1 PUSH1 0x40 DUP4 DUP6 SUB SLT ISZERO PUSH2 0x2B2 JUMPI PUSH2 0x2B1 PUSH2 0x158 JUMP JUMPDEST JUMPDEST PUSH0 DUP4 ADD CALLDATALOAD PUSH8 0xFFFFFFFFFFFFFFFF DUP2 GT ISZERO PUSH2 0x2CF JUMPI PUSH2 0x2CE PUSH2 0x15C JUMP JUMPDEST JUMPDEST PUSH2 0x2DB DUP6 DUP3 DUP7 ADD PUSH2 0x26F JUMP JUMPDEST SWAP3 POP POP PUSH1 0x20 DUP4 ADD CALLDATALOAD PUSH8 0xFFFFFFFFFFFFFFFF DUP2 GT ISZERO PUSH2 0x2FC JUMPI PUSH2 0x2FB PUSH2 0x15C JUMP JUMPDEST JUMPDEST PUSH2 0x308 DUP6 DUP3 DUP7 ADD PUSH2 0x26F JUMP JUMPDEST SWAP2 POP POP SWAP3 POP SWAP3 SWAP1 POP JUMP JUMPDEST PUSH0 DUP2 MLOAD SWAP1 POP SWAP2 SWAP1 POP JUMP JUMPDEST PUSH0 DUP2 SWAP1 POP SWAP3 SWAP2 POP POP JUMP JUMPDEST PUSH0 JUMPDEST DUP4 DUP2 LT ISZERO PUSH2 0x343 JUMPI DUP1 DUP3 ADD MLOAD DUP2 DUP5 ADD MSTORE PUSH1 0x20 DUP2 ADD SWAP1 POP PUSH2 0x328 JUMP JUMPDEST PUSH0 DUP5 DUP5 ADD MSTORE POP POP POP POP JUMP JUMPDEST PUSH0 PUSH2 0x358 DUP3 PUSH2 0x312 JUMP JUMPDEST PUSH2 0x362 DUP2 DUP6 PUSH2 0x31C JUMP JUMPDEST SWAP4 POP PUSH2 0x372 DUP2 DUP6 PUSH1 0x20 DUP7 ADD PUSH2 0x326 JUMP JUMPDEST DUP1 DUP5 ADD SWAP2 POP POP SWAP3 SWAP2 POP POP JUMP JUMPDEST PUSH0 PUSH2 0x389 DUP3 DUP5 PUSH2 0x34E JUMP JUMPDEST SWAP2 POP DUP2 SWAP1 POP SWAP3 SWAP2 POP POP JUMP INVALID LOG2 PUSH5 0x6970667358 0x22 SLT KECCAK256 DUP3 0xEF SWAP4 STATICCALL RETURN SELFDESTRUCT PUSH23 0x6356FD2B1024924534774CB3B0F648893AFA3332B2099B EXTCODECOPY 0xAC PUSH5 0x736F6C6343 STOP ADDMOD EQ STOP CALLER "
		},
		"gasEstimates": {
			"creation": {
				"codeDepositCost": "194000",
				"executionCost": "236",
				"totalCost": "194236"
			},
			"external": {
				"EXPECTED_BYTES()": "308",
				"solveChallenge(string,string)": "infinite"
			}
		},
		"methodIdentifiers": {
			"EXPECTED_BYTES()": "3702a874",
			"solveChallenge(string,string)": "fa455435"
		}
	},
	"abi": [
		{
			"inputs": [],
			"name": "LessonFive__WrongPassword",
			"type": "error"
		},
		{
			"inputs": [],
			"name": "EXPECTED_BYTES",
			"outputs": [
				{
					"internalType": "bytes32",
					"name": "",
					"type": "bytes32"
				}
			],
			"stateMutability": "view",
			"type": "function"
		},
		{
			"inputs": [
				{
					"internalType": "string",
					"name": "password",
					"type": "string"
				},
				{
					"internalType": "string",
					"name": "yourTwitterHandle",
					"type": "string"
				}
			],
			"name": "solveChallenge",
			"outputs": [],
			"stateMutability": "nonpayable",
			"type": "function"
		}
	]
}