{
	"lesson-11/Encoding.sol": {
		"Encoding": {
			"abi": [
				{
					"inputs": [],
					"name": "combineStrings",
					"outputs": [
						{
							"internalType": "string",
							"name": "",
							"type": "string"
						}
					],
					"stateMutability": "pure",
					"type": "function"
				},
				{
					"inputs": [],
					"name": "decodeString",
					"outputs": [
						{
							"internalType": "string",
							"name": "",
							"type": "string"
						}
					],
					"stateMutability": "pure",
					"type": "function"
				},
				{
					"inputs": [],
					"name": "encodeNumber",
					"outputs": [
						{
							"internalType": "bytes",
							"name": "",
							"type": "bytes"
						}
					],
					"stateMutability": "pure",
					"type": "function"
				},
				{
					"inputs": [],
					"name": "encodeString",
					"outputs": [
						{
							"internalType": "bytes",
							"name": "",
							"type": "bytes"
						}
					],
					"stateMutability": "pure",
					"type": "function"
				},
				{
					"inputs": [],
					"name": "encodeStringBytes",
					"outputs": [
						{
							"internalType": "bytes",
							"name": "",
							"type": "bytes"
						}
					],
					"stateMutability": "pure",
					"type": "function"
				},
				{
					"inputs": [],
					"name": "encodeStringPacked",
					"outputs": [
						{
							"internalType": "bytes",
							"name": "",
							"type": "bytes"
						}
					],
					"stateMutability": "pure",
					"type": "function"
				},
				{
					"inputs": [],
					"name": "multiCastStringPacked",
					"outputs": [
						{
							"internalType": "string",
							"name": "",
							"type": "string"
						}
					],
					"stateMutability": "pure",
					"type": "function"
				},
				{
					"inputs": [],
					"name": "multiDecode",
					"outputs": [
						{
							"internalType": "string",
							"name": "",
							"type": "string"
						},
						{
							"internalType": "string",
							"name": "",
							"type": "string"
						}
					],
					"stateMutability": "pure",
					"type": "function"
				},
				{
					"inputs": [],
					"name": "multiEncode",
					"outputs": [
						{
							"internalType": "bytes",
							"name": "",
							"type": "bytes"
						}
					],
					"stateMutability": "pure",
					"type": "function"
				},
				{
					"inputs": [],
					"name": "multiEncodePacked",
					"outputs": [
						{
							"internalType": "bytes",
							"name": "",
							"type": "bytes"
						}
					],
					"stateMutability": "pure",
					"type": "function"
				}
			],
			"devdoc": {
				"kind": "dev",
				"methods": {},
				"version": 1
			},
			"evm": {
				"assembly": "    /* \"lesson-11/Encoding.sol\":59:1742  contract Encoding {... */\n  mstore(0x40, 0x80)\n  callvalue\n  dup1\n  iszero\n  tag_1\n  jumpi\n  0x00\n  dup1\n  revert\ntag_1:\n  pop\n  dataSize(sub_0)\n  dup1\n  dataOffset(sub_0)\n  0x00\n  codecopy\n  0x00\n  return\nstop\n\nsub_0: assembly {\n        /* \"lesson-11/Encoding.sol\":59:1742  contract Encoding {... */\n      mstore(0x40, 0x80)\n      callvalue\n      dup1\n      iszero\n      tag_1\n      jumpi\n      0x00\n      dup1\n      revert\n    tag_1:\n      pop\n      jumpi(tag_2, lt(calldatasize, 0x04))\n      shr(0xe0, calldataload(0x00))\n      dup1\n      0xa6dc49b8\n      gt\n      tag_13\n      jumpi\n      dup1\n      0xa6dc49b8\n      eq\n      tag_8\n      jumpi\n      dup1\n      0xa77b0360\n      eq\n      tag_9\n      jumpi\n      dup1\n      0xb4748718\n      eq\n      tag_10\n      jumpi\n      dup1\n      0xc452d79b\n      eq\n      tag_11\n      jumpi\n      dup1\n      0xed5df365\n      eq\n      tag_12\n      jumpi\n      jump(tag_2)\n    tag_13:\n      dup1\n      0x09a97cb8\n      eq\n      tag_3\n      jumpi\n      dup1\n      0x114a7610\n      eq\n      tag_4\n      jumpi\n      dup1\n      0x15889d1a\n      eq\n      tag_5\n      jumpi\n      dup1\n      0x2085f4b9\n      eq\n      tag_6\n      jumpi\n      dup1\n      0x406ec9f2\n      eq\n      tag_7\n      jumpi\n    tag_2:\n      0x00\n      dup1\n      revert\n        /* \"lesson-11/Encoding.sol\":1574:1740  function multiCastStringPacked() public pure returns(string memory) {... */\n    tag_3:\n      tag_14\n      tag_15\n      jump\t// in\n    tag_14:\n      mload(0x40)\n      tag_16\n      swap2\n      swap1\n      tag_17\n      jump\t// in\n    tag_16:\n      mload(0x40)\n      dup1\n      swap2\n      sub\n      swap1\n      return\n        /* \"lesson-11/Encoding.sol\":83:207  function combineStrings() public pure returns(string memory) {... */\n    tag_4:\n      tag_18\n      tag_19\n      jump\t// in\n    tag_18:\n      mload(0x40)\n      tag_20\n      swap2\n      swap1\n      tag_17\n      jump\t// in\n    tag_20:\n      mload(0x40)\n      dup1\n      swap2\n      sub\n      swap1\n      return\n        /* \"lesson-11/Encoding.sol\":213:346  function encodeNumber() public pure returns(bytes memory) {... */\n    tag_5:\n      tag_21\n      tag_22\n      jump\t// in\n    tag_21:\n      mload(0x40)\n      tag_23\n      swap2\n      swap1\n      tag_24\n      jump\t// in\n    tag_23:\n      mload(0x40)\n      dup1\n      swap2\n      sub\n      swap1\n      return\n        /* \"lesson-11/Encoding.sol\":505:664  function encodeStringPacked() public pure returns(bytes memory) {... */\n    tag_6:\n      tag_25\n      tag_26\n      jump\t// in\n    tag_25:\n      mload(0x40)\n      tag_27\n      swap2\n      swap1\n      tag_24\n      jump\t// in\n    tag_27:\n      mload(0x40)\n      dup1\n      swap2\n      sub\n      swap1\n      return\n        /* \"lesson-11/Encoding.sol\":670:827  function encodeStringBytes() public pure returns(bytes memory) {... */\n    tag_7:\n      tag_28\n      tag_29\n      jump\t// in\n    tag_28:\n      mload(0x40)\n      tag_30\n      swap2\n      swap1\n      tag_24\n      jump\t// in\n    tag_30:\n      mload(0x40)\n      dup1\n      swap2\n      sub\n      swap1\n      return\n        /* \"lesson-11/Encoding.sol\":1006:1162  function multiEncode() public pure returns(bytes memory) {... */\n    tag_8:\n      tag_31\n      tag_32\n      jump\t// in\n    tag_31:\n      mload(0x40)\n      tag_33\n      swap2\n      swap1\n      tag_24\n      jump\t// in\n    tag_33:\n      mload(0x40)\n      dup1\n      swap2\n      sub\n      swap1\n      return\n        /* \"lesson-11/Encoding.sol\":833:1000  function decodeString() public  pure returns(string memory) {... */\n    tag_9:\n      tag_34\n      tag_35\n      jump\t// in\n    tag_34:\n      mload(0x40)\n      tag_36\n      swap2\n      swap1\n      tag_17\n      jump\t// in\n    tag_36:\n      mload(0x40)\n      dup1\n      swap2\n      sub\n      swap1\n      return\n        /* \"lesson-11/Encoding.sol\":1400:1568  function multiEncodePacked() public pure returns(bytes memory) {... */\n    tag_10:\n      tag_37\n      tag_38\n      jump\t// in\n    tag_37:\n      mload(0x40)\n      tag_39\n      swap2\n      swap1\n      tag_24\n      jump\t// in\n    tag_39:\n      mload(0x40)\n      dup1\n      swap2\n      sub\n      swap1\n      return\n        /* \"lesson-11/Encoding.sol\":1169:1394  function multiDecode() public pure returns(string memory, string memory) {... */\n    tag_11:\n      tag_40\n      tag_41\n      jump\t// in\n    tag_40:\n      mload(0x40)\n      tag_42\n      swap3\n      swap2\n      swap1\n      tag_43\n      jump\t// in\n    tag_42:\n      mload(0x40)\n      dup1\n      swap2\n      sub\n      swap1\n      return\n        /* \"lesson-11/Encoding.sol\":352:499  function encodeString() public pure returns(bytes memory) {... */\n    tag_12:\n      tag_44\n      tag_45\n      jump\t// in\n    tag_44:\n      mload(0x40)\n      tag_46\n      swap2\n      swap1\n      tag_24\n      jump\t// in\n    tag_46:\n      mload(0x40)\n      dup1\n      swap2\n      sub\n      swap1\n      return\n        /* \"lesson-11/Encoding.sol\":1574:1740  function multiCastStringPacked() public pure returns(string memory) {... */\n    tag_15:\n        /* \"lesson-11/Encoding.sol\":1627:1640  string memory */\n      0x60\n        /* \"lesson-11/Encoding.sol\":1652:1675  string memory stringOne */\n      0x00\n        /* \"lesson-11/Encoding.sol\":1685:1704  multiEncodePacked() */\n      tag_48\n        /* \"lesson-11/Encoding.sol\":1685:1702  multiEncodePacked */\n      tag_38\n        /* \"lesson-11/Encoding.sol\":1685:1704  multiEncodePacked() */\n      jump\t// in\n    tag_48:\n        /* \"lesson-11/Encoding.sol\":1652:1705  string memory stringOne = string(multiEncodePacked()) */\n      swap1\n      pop\n        /* \"lesson-11/Encoding.sol\":1723:1732  stringOne */\n      dup1\n        /* \"lesson-11/Encoding.sol\":1715:1733  return (stringOne) */\n      swap2\n      pop\n      pop\n        /* \"lesson-11/Encoding.sol\":1574:1740  function multiCastStringPacked() public pure returns(string memory) {... */\n      swap1\n      jump\t// out\n        /* \"lesson-11/Encoding.sol\":83:207  function combineStrings() public pure returns(string memory) {... */\n    tag_19:\n        /* \"lesson-11/Encoding.sol\":129:142  string memory */\n      0x60\n        /* \"lesson-11/Encoding.sol\":168:199  abi.encodePacked(\"Hi\", \"Hello\") */\n      add(0x20, mload(0x40))\n      tag_50\n      swap1\n      tag_51\n      jump\t// in\n    tag_50:\n      mload(0x40)\n      0x20\n      dup2\n      dup4\n      sub\n      sub\n      dup2\n      mstore\n      swap1\n      0x40\n      mstore\n        /* \"lesson-11/Encoding.sol\":154:200  return string(abi.encodePacked(\"Hi\", \"Hello\")) */\n      swap1\n      pop\n        /* \"lesson-11/Encoding.sol\":83:207  function combineStrings() public pure returns(string memory) {... */\n      swap1\n      jump\t// out\n        /* \"lesson-11/Encoding.sol\":213:346  function encodeNumber() public pure returns(bytes memory) {... */\n    tag_22:\n        /* \"lesson-11/Encoding.sol\":257:269  bytes memory */\n      0x60\n        /* \"lesson-11/Encoding.sol\":281:300  bytes memory number */\n      0x00\n        /* \"lesson-11/Encoding.sol\":314:315  1 */\n      0x01\n        /* \"lesson-11/Encoding.sol\":303:316  abi.encode(1) */\n      add(0x20, mload(0x40))\n      tag_53\n      swap2\n      swap1\n      tag_54\n      jump\t// in\n    tag_53:\n      mload(0x40)\n      0x20\n      dup2\n      dup4\n      sub\n      sub\n      dup2\n      mstore\n      swap1\n      0x40\n      mstore\n        /* \"lesson-11/Encoding.sol\":281:316  bytes memory number = abi.encode(1) */\n      swap1\n      pop\n        /* \"lesson-11/Encoding.sol\":333:339  number */\n      dup1\n        /* \"lesson-11/Encoding.sol\":326:339  return number */\n      swap2\n      pop\n      pop\n        /* \"lesson-11/Encoding.sol\":213:346  function encodeNumber() public pure returns(bytes memory) {... */\n      swap1\n      jump\t// out\n        /* \"lesson-11/Encoding.sol\":505:664  function encodeStringPacked() public pure returns(bytes memory) {... */\n    tag_26:\n        /* \"lesson-11/Encoding.sol\":555:567  bytes memory */\n      0x60\n        /* \"lesson-11/Encoding.sol\":579:599  bytes memory strings */\n      0x00\n        /* \"lesson-11/Encoding.sol\":602:633  abi.encodePacked(\"Hello There\") */\n      add(0x20, mload(0x40))\n      tag_56\n      swap1\n      tag_57\n      jump\t// in\n    tag_56:\n      mload(0x40)\n      0x20\n      dup2\n      dup4\n      sub\n      sub\n      dup2\n      mstore\n      swap1\n      0x40\n      mstore\n        /* \"lesson-11/Encoding.sol\":579:633  bytes memory strings = abi.encodePacked(\"Hello There\") */\n      swap1\n      pop\n        /* \"lesson-11/Encoding.sol\":650:657  strings */\n      dup1\n        /* \"lesson-11/Encoding.sol\":643:657  return strings */\n      swap2\n      pop\n      pop\n        /* \"lesson-11/Encoding.sol\":505:664  function encodeStringPacked() public pure returns(bytes memory) {... */\n      swap1\n      jump\t// out\n        /* \"lesson-11/Encoding.sol\":670:827  function encodeStringBytes() public pure returns(bytes memory) {... */\n    tag_29:\n        /* \"lesson-11/Encoding.sol\":719:731  bytes memory */\n      0x60\n        /* \"lesson-11/Encoding.sol\":743:768  bytes memory stringsbytes */\n      0x00\n        /* \"lesson-11/Encoding.sol\":771:791  bytes(\"Hello There\") */\n      mload(0x40)\n      dup1\n      0x40\n      add\n      0x40\n      mstore\n      dup1\n      0x0b\n      dup2\n      mstore\n      0x20\n      add\n      0x48656c6c6f205468657265000000000000000000000000000000000000000000\n      dup2\n      mstore\n      pop\n        /* \"lesson-11/Encoding.sol\":743:791  bytes memory stringsbytes = bytes(\"Hello There\") */\n      swap1\n      pop\n        /* \"lesson-11/Encoding.sol\":808:820  stringsbytes */\n      dup1\n        /* \"lesson-11/Encoding.sol\":801:820  return stringsbytes */\n      swap2\n      pop\n      pop\n        /* \"lesson-11/Encoding.sol\":670:827  function encodeStringBytes() public pure returns(bytes memory) {... */\n      swap1\n      jump\t// out\n        /* \"lesson-11/Encoding.sol\":1006:1162  function multiEncode() public pure returns(bytes memory) {... */\n    tag_32:\n        /* \"lesson-11/Encoding.sol\":1049:1061  bytes memory */\n      0x60\n        /* \"lesson-11/Encoding.sol\":1073:1098  bytes memory stringEncode */\n      0x00\n        /* \"lesson-11/Encoding.sol\":1101:1126  abi.encode(\"Hi\", \"Hello\") */\n      add(0x20, mload(0x40))\n      tag_60\n      swap1\n      tag_61\n      jump\t// in\n    tag_60:\n      mload(0x40)\n      0x20\n      dup2\n      dup4\n      sub\n      sub\n      dup2\n      mstore\n      swap1\n      0x40\n      mstore\n        /* \"lesson-11/Encoding.sol\":1073:1126  bytes memory stringEncode = abi.encode(\"Hi\", \"Hello\") */\n      swap1\n      pop\n        /* \"lesson-11/Encoding.sol\":1143:1155  stringEncode */\n      dup1\n        /* \"lesson-11/Encoding.sol\":1136:1155  return stringEncode */\n      swap2\n      pop\n      pop\n        /* \"lesson-11/Encoding.sol\":1006:1162  function multiEncode() public pure returns(bytes memory) {... */\n      swap1\n      jump\t// out\n        /* \"lesson-11/Encoding.sol\":833:1000  function decodeString() public  pure returns(string memory) {... */\n    tag_35:\n        /* \"lesson-11/Encoding.sol\":878:891  string memory */\n      0x60\n        /* \"lesson-11/Encoding.sol\":903:927  string memory someString */\n      0x00\n        /* \"lesson-11/Encoding.sol\":941:955  encodeString() */\n      tag_63\n        /* \"lesson-11/Encoding.sol\":941:953  encodeString */\n      tag_45\n        /* \"lesson-11/Encoding.sol\":941:955  encodeString() */\n      jump\t// in\n    tag_63:\n        /* \"lesson-11/Encoding.sol\":930:966  abi.decode(encodeString(), (string)) */\n      dup1\n      0x20\n      add\n      swap1\n      mload\n      dup2\n      add\n      swap1\n      tag_64\n      swap2\n      swap1\n      tag_65\n      jump\t// in\n    tag_64:\n        /* \"lesson-11/Encoding.sol\":903:966  string memory someString = abi.decode(encodeString(), (string)) */\n      swap1\n      pop\n        /* \"lesson-11/Encoding.sol\":983:993  someString */\n      dup1\n        /* \"lesson-11/Encoding.sol\":976:993  return someString */\n      swap2\n      pop\n      pop\n        /* \"lesson-11/Encoding.sol\":833:1000  function decodeString() public  pure returns(string memory) {... */\n      swap1\n      jump\t// out\n        /* \"lesson-11/Encoding.sol\":1400:1568  function multiEncodePacked() public pure returns(bytes memory) {... */\n    tag_38:\n        /* \"lesson-11/Encoding.sol\":1449:1461  bytes memory */\n      0x60\n        /* \"lesson-11/Encoding.sol\":1473:1498  bytes memory stringEncode */\n      0x00\n        /* \"lesson-11/Encoding.sol\":1501:1532  abi.encodePacked(\"Hi\", \"Hello\") */\n      add(0x20, mload(0x40))\n      tag_67\n      swap1\n      tag_51\n      jump\t// in\n    tag_67:\n      mload(0x40)\n      0x20\n      dup2\n      dup4\n      sub\n      sub\n      dup2\n      mstore\n      swap1\n      0x40\n      mstore\n        /* \"lesson-11/Encoding.sol\":1473:1532  bytes memory stringEncode = abi.encodePacked(\"Hi\", \"Hello\") */\n      swap1\n      pop\n        /* \"lesson-11/Encoding.sol\":1549:1561  stringEncode */\n      dup1\n        /* \"lesson-11/Encoding.sol\":1542:1561  return stringEncode */\n      swap2\n      pop\n      pop\n        /* \"lesson-11/Encoding.sol\":1400:1568  function multiEncodePacked() public pure returns(bytes memory) {... */\n      swap1\n      jump\t// out\n        /* \"lesson-11/Encoding.sol\":1169:1394  function multiDecode() public pure returns(string memory, string memory) {... */\n    tag_41:\n        /* \"lesson-11/Encoding.sol\":1212:1225  string memory */\n      0x60\n        /* \"lesson-11/Encoding.sol\":1227:1240  string memory */\n      dup1\n        /* \"lesson-11/Encoding.sol\":1253:1276  string memory stringOne */\n      0x00\n        /* \"lesson-11/Encoding.sol\":1278:1301  string memory stringTwo */\n      dup1\n        /* \"lesson-11/Encoding.sol\":1316:1329  multiEncode() */\n      tag_69\n        /* \"lesson-11/Encoding.sol\":1316:1327  multiEncode */\n      tag_32\n        /* \"lesson-11/Encoding.sol\":1316:1329  multiEncode() */\n      jump\t// in\n    tag_69:\n        /* \"lesson-11/Encoding.sol\":1305:1348  abi.decode(multiEncode(), (string, string)) */\n      dup1\n      0x20\n      add\n      swap1\n      mload\n      dup2\n      add\n      swap1\n      tag_70\n      swap2\n      swap1\n      tag_71\n      jump\t// in\n    tag_70:\n        /* \"lesson-11/Encoding.sol\":1252:1348  (string memory stringOne, string memory stringTwo) = abi.decode(multiEncode(), (string, string)) */\n      swap2\n      pop\n      swap2\n      pop\n        /* \"lesson-11/Encoding.sol\":1366:1375  stringOne */\n      dup2\n        /* \"lesson-11/Encoding.sol\":1377:1386  stringTwo */\n      dup2\n        /* \"lesson-11/Encoding.sol\":1358:1387  return (stringOne, stringTwo) */\n      swap4\n      pop\n      swap4\n      pop\n      pop\n      pop\n        /* \"lesson-11/Encoding.sol\":1169:1394  function multiDecode() public pure returns(string memory, string memory) {... */\n      swap1\n      swap2\n      jump\t// out\n        /* \"lesson-11/Encoding.sol\":352:499  function encodeString() public pure returns(bytes memory) {... */\n    tag_45:\n        /* \"lesson-11/Encoding.sol\":396:408  bytes memory */\n      0x60\n        /* \"lesson-11/Encoding.sol\":420:440  bytes memory strings */\n      0x00\n        /* \"lesson-11/Encoding.sol\":443:468  abi.encode(\"Hello There\") */\n      add(0x20, mload(0x40))\n      tag_73\n      swap1\n      tag_74\n      jump\t// in\n    tag_73:\n      mload(0x40)\n      0x20\n      dup2\n      dup4\n      sub\n      sub\n      dup2\n      mstore\n      swap1\n      0x40\n      mstore\n        /* \"lesson-11/Encoding.sol\":420:468  bytes memory strings = abi.encode(\"Hello There\") */\n      swap1\n      pop\n        /* \"lesson-11/Encoding.sol\":485:492  strings */\n      dup1\n        /* \"lesson-11/Encoding.sol\":478:492  return strings */\n      swap2\n      pop\n      pop\n        /* \"lesson-11/Encoding.sol\":352:499  function encodeString() public pure returns(bytes memory) {... */\n      swap1\n      jump\t// out\n        /* \"#utility.yul\":7:106   */\n    tag_75:\n        /* \"#utility.yul\":59:65   */\n      0x00\n        /* \"#utility.yul\":93:98   */\n      dup2\n        /* \"#utility.yul\":87:99   */\n      mload\n        /* \"#utility.yul\":77:99   */\n      swap1\n      pop\n        /* \"#utility.yul\":7:106   */\n      swap2\n      swap1\n      pop\n      jump\t// out\n        /* \"#utility.yul\":112:281   */\n    tag_76:\n        /* \"#utility.yul\":196:207   */\n      0x00\n        /* \"#utility.yul\":230:236   */\n      dup3\n        /* \"#utility.yul\":225:228   */\n      dup3\n        /* \"#utility.yul\":218:237   */\n      mstore\n        /* \"#utility.yul\":270:274   */\n      0x20\n        /* \"#utility.yul\":265:268   */\n      dup3\n        /* \"#utility.yul\":261:275   */\n      add\n        /* \"#utility.yul\":246:275   */\n      swap1\n      pop\n        /* \"#utility.yul\":112:281   */\n      swap3\n      swap2\n      pop\n      pop\n      jump\t// out\n        /* \"#utility.yul\":287:533   */\n    tag_77:\n        /* \"#utility.yul\":368:369   */\n      0x00\n        /* \"#utility.yul\":378:491   */\n    tag_113:\n        /* \"#utility.yul\":392:398   */\n      dup4\n        /* \"#utility.yul\":389:390   */\n      dup2\n        /* \"#utility.yul\":386:399   */\n      lt\n        /* \"#utility.yul\":378:491   */\n      iszero\n      tag_115\n      jumpi\n        /* \"#utility.yul\":477:478   */\n      dup1\n        /* \"#utility.yul\":472:475   */\n      dup3\n        /* \"#utility.yul\":468:479   */\n      add\n        /* \"#utility.yul\":462:480   */\n      mload\n        /* \"#utility.yul\":458:459   */\n      dup2\n        /* \"#utility.yul\":453:456   */\n      dup5\n        /* \"#utility.yul\":449:460   */\n      add\n        /* \"#utility.yul\":442:481   */\n      mstore\n        /* \"#utility.yul\":414:416   */\n      0x20\n        /* \"#utility.yul\":411:412   */\n      dup2\n        /* \"#utility.yul\":407:417   */\n      add\n        /* \"#utility.yul\":402:417   */\n      swap1\n      pop\n        /* \"#utility.yul\":378:491   */\n      jump(tag_113)\n    tag_115:\n        /* \"#utility.yul\":525:526   */\n      0x00\n        /* \"#utility.yul\":516:522   */\n      dup5\n        /* \"#utility.yul\":511:514   */\n      dup5\n        /* \"#utility.yul\":507:523   */\n      add\n        /* \"#utility.yul\":500:527   */\n      mstore\n        /* \"#utility.yul\":349:533   */\n      pop\n        /* \"#utility.yul\":287:533   */\n      pop\n      pop\n      pop\n      jump\t// out\n        /* \"#utility.yul\":539:641   */\n    tag_78:\n        /* \"#utility.yul\":580:586   */\n      0x00\n        /* \"#utility.yul\":631:633   */\n      0x1f\n        /* \"#utility.yul\":627:634   */\n      not\n        /* \"#utility.yul\":622:624   */\n      0x1f\n        /* \"#utility.yul\":615:620   */\n      dup4\n        /* \"#utility.yul\":611:625   */\n      add\n        /* \"#utility.yul\":607:635   */\n      and\n        /* \"#utility.yul\":597:635   */\n      swap1\n      pop\n        /* \"#utility.yul\":539:641   */\n      swap2\n      swap1\n      pop\n      jump\t// out\n        /* \"#utility.yul\":647:1024   */\n    tag_79:\n        /* \"#utility.yul\":735:738   */\n      0x00\n        /* \"#utility.yul\":763:802   */\n      tag_118\n        /* \"#utility.yul\":796:801   */\n      dup3\n        /* \"#utility.yul\":763:802   */\n      tag_75\n      jump\t// in\n    tag_118:\n        /* \"#utility.yul\":818:889   */\n      tag_119\n        /* \"#utility.yul\":882:888   */\n      dup2\n        /* \"#utility.yul\":877:880   */\n      dup6\n        /* \"#utility.yul\":818:889   */\n      tag_76\n      jump\t// in\n    tag_119:\n        /* \"#utility.yul\":811:889   */\n      swap4\n      pop\n        /* \"#utility.yul\":898:963   */\n      tag_120\n        /* \"#utility.yul\":956:962   */\n      dup2\n        /* \"#utility.yul\":951:954   */\n      dup6\n        /* \"#utility.yul\":944:948   */\n      0x20\n        /* \"#utility.yul\":937:942   */\n      dup7\n        /* \"#utility.yul\":933:949   */\n      add\n        /* \"#utility.yul\":898:963   */\n      tag_77\n      jump\t// in\n    tag_120:\n        /* \"#utility.yul\":988:1017   */\n      tag_121\n        /* \"#utility.yul\":1010:1016   */\n      dup2\n        /* \"#utility.yul\":988:1017   */\n      tag_78\n      jump\t// in\n    tag_121:\n        /* \"#utility.yul\":983:986   */\n      dup5\n        /* \"#utility.yul\":979:1018   */\n      add\n        /* \"#utility.yul\":972:1018   */\n      swap2\n      pop\n        /* \"#utility.yul\":739:1024   */\n      pop\n        /* \"#utility.yul\":647:1024   */\n      swap3\n      swap2\n      pop\n      pop\n      jump\t// out\n        /* \"#utility.yul\":1030:1343   */\n    tag_17:\n        /* \"#utility.yul\":1143:1147   */\n      0x00\n        /* \"#utility.yul\":1181:1183   */\n      0x20\n        /* \"#utility.yul\":1170:1179   */\n      dup3\n        /* \"#utility.yul\":1166:1184   */\n      add\n        /* \"#utility.yul\":1158:1184   */\n      swap1\n      pop\n        /* \"#utility.yul\":1230:1239   */\n      dup2\n        /* \"#utility.yul\":1224:1228   */\n      dup2\n        /* \"#utility.yul\":1220:1240   */\n      sub\n        /* \"#utility.yul\":1216:1217   */\n      0x00\n        /* \"#utility.yul\":1205:1214   */\n      dup4\n        /* \"#utility.yul\":1201:1218   */\n      add\n        /* \"#utility.yul\":1194:1241   */\n      mstore\n        /* \"#utility.yul\":1258:1336   */\n      tag_123\n        /* \"#utility.yul\":1331:1335   */\n      dup2\n        /* \"#utility.yul\":1322:1328   */\n      dup5\n        /* \"#utility.yul\":1258:1336   */\n      tag_79\n      jump\t// in\n    tag_123:\n        /* \"#utility.yul\":1250:1336   */\n      swap1\n      pop\n        /* \"#utility.yul\":1030:1343   */\n      swap3\n      swap2\n      pop\n      pop\n      jump\t// out\n        /* \"#utility.yul\":1349:1447   */\n    tag_80:\n        /* \"#utility.yul\":1400:1406   */\n      0x00\n        /* \"#utility.yul\":1434:1439   */\n      dup2\n        /* \"#utility.yul\":1428:1440   */\n      mload\n        /* \"#utility.yul\":1418:1440   */\n      swap1\n      pop\n        /* \"#utility.yul\":1349:1447   */\n      swap2\n      swap1\n      pop\n      jump\t// out\n        /* \"#utility.yul\":1453:1621   */\n    tag_81:\n        /* \"#utility.yul\":1536:1547   */\n      0x00\n        /* \"#utility.yul\":1570:1576   */\n      dup3\n        /* \"#utility.yul\":1565:1568   */\n      dup3\n        /* \"#utility.yul\":1558:1577   */\n      mstore\n        /* \"#utility.yul\":1610:1614   */\n      0x20\n        /* \"#utility.yul\":1605:1608   */\n      dup3\n        /* \"#utility.yul\":1601:1615   */\n      add\n        /* \"#utility.yul\":1586:1615   */\n      swap1\n      pop\n        /* \"#utility.yul\":1453:1621   */\n      swap3\n      swap2\n      pop\n      pop\n      jump\t// out\n        /* \"#utility.yul\":1627:2000   */\n    tag_82:\n        /* \"#utility.yul\":1713:1716   */\n      0x00\n        /* \"#utility.yul\":1741:1779   */\n      tag_127\n        /* \"#utility.yul\":1773:1778   */\n      dup3\n        /* \"#utility.yul\":1741:1779   */\n      tag_80\n      jump\t// in\n    tag_127:\n        /* \"#utility.yul\":1795:1865   */\n      tag_128\n        /* \"#utility.yul\":1858:1864   */\n      dup2\n        /* \"#utility.yul\":1853:1856   */\n      dup6\n        /* \"#utility.yul\":1795:1865   */\n      tag_81\n      jump\t// in\n    tag_128:\n        /* \"#utility.yul\":1788:1865   */\n      swap4\n      pop\n        /* \"#utility.yul\":1874:1939   */\n      tag_129\n        /* \"#utility.yul\":1932:1938   */\n      dup2\n        /* \"#utility.yul\":1927:1930   */\n      dup6\n        /* \"#utility.yul\":1920:1924   */\n      0x20\n        /* \"#utility.yul\":1913:1918   */\n      dup7\n        /* \"#utility.yul\":1909:1925   */\n      add\n        /* \"#utility.yul\":1874:1939   */\n      tag_77\n      jump\t// in\n    tag_129:\n        /* \"#utility.yul\":1964:1993   */\n      tag_130\n        /* \"#utility.yul\":1986:1992   */\n      dup2\n        /* \"#utility.yul\":1964:1993   */\n      tag_78\n      jump\t// in\n    tag_130:\n        /* \"#utility.yul\":1959:1962   */\n      dup5\n        /* \"#utility.yul\":1955:1994   */\n      add\n        /* \"#utility.yul\":1948:1994   */\n      swap2\n      pop\n        /* \"#utility.yul\":1717:2000   */\n      pop\n        /* \"#utility.yul\":1627:2000   */\n      swap3\n      swap2\n      pop\n      pop\n      jump\t// out\n        /* \"#utility.yul\":2006:2315   */\n    tag_24:\n        /* \"#utility.yul\":2117:2121   */\n      0x00\n        /* \"#utility.yul\":2155:2157   */\n      0x20\n        /* \"#utility.yul\":2144:2153   */\n      dup3\n        /* \"#utility.yul\":2140:2158   */\n      add\n        /* \"#utility.yul\":2132:2158   */\n      swap1\n      pop\n        /* \"#utility.yul\":2204:2213   */\n      dup2\n        /* \"#utility.yul\":2198:2202   */\n      dup2\n        /* \"#utility.yul\":2194:2214   */\n      sub\n        /* \"#utility.yul\":2190:2191   */\n      0x00\n        /* \"#utility.yul\":2179:2188   */\n      dup4\n        /* \"#utility.yul\":2175:2192   */\n      add\n        /* \"#utility.yul\":2168:2215   */\n      mstore\n        /* \"#utility.yul\":2232:2308   */\n      tag_132\n        /* \"#utility.yul\":2303:2307   */\n      dup2\n        /* \"#utility.yul\":2294:2300   */\n      dup5\n        /* \"#utility.yul\":2232:2308   */\n      tag_82\n      jump\t// in\n    tag_132:\n        /* \"#utility.yul\":2224:2308   */\n      swap1\n      pop\n        /* \"#utility.yul\":2006:2315   */\n      swap3\n      swap2\n      pop\n      pop\n      jump\t// out\n        /* \"#utility.yul\":2321:2835   */\n    tag_43:\n        /* \"#utility.yul\":2482:2486   */\n      0x00\n        /* \"#utility.yul\":2520:2522   */\n      0x40\n        /* \"#utility.yul\":2509:2518   */\n      dup3\n        /* \"#utility.yul\":2505:2523   */\n      add\n        /* \"#utility.yul\":2497:2523   */\n      swap1\n      pop\n        /* \"#utility.yul\":2569:2578   */\n      dup2\n        /* \"#utility.yul\":2563:2567   */\n      dup2\n        /* \"#utility.yul\":2559:2579   */\n      sub\n        /* \"#utility.yul\":2555:2556   */\n      0x00\n        /* \"#utility.yul\":2544:2553   */\n      dup4\n        /* \"#utility.yul\":2540:2557   */\n      add\n        /* \"#utility.yul\":2533:2580   */\n      mstore\n        /* \"#utility.yul\":2597:2675   */\n      tag_134\n        /* \"#utility.yul\":2670:2674   */\n      dup2\n        /* \"#utility.yul\":2661:2667   */\n      dup6\n        /* \"#utility.yul\":2597:2675   */\n      tag_79\n      jump\t// in\n    tag_134:\n        /* \"#utility.yul\":2589:2675   */\n      swap1\n      pop\n        /* \"#utility.yul\":2722:2731   */\n      dup2\n        /* \"#utility.yul\":2716:2720   */\n      dup2\n        /* \"#utility.yul\":2712:2732   */\n      sub\n        /* \"#utility.yul\":2707:2709   */\n      0x20\n        /* \"#utility.yul\":2696:2705   */\n      dup4\n        /* \"#utility.yul\":2692:2710   */\n      add\n        /* \"#utility.yul\":2685:2733   */\n      mstore\n        /* \"#utility.yul\":2750:2828   */\n      tag_135\n        /* \"#utility.yul\":2823:2827   */\n      dup2\n        /* \"#utility.yul\":2814:2820   */\n      dup5\n        /* \"#utility.yul\":2750:2828   */\n      tag_79\n      jump\t// in\n    tag_135:\n        /* \"#utility.yul\":2742:2828   */\n      swap1\n      pop\n        /* \"#utility.yul\":2321:2835   */\n      swap4\n      swap3\n      pop\n      pop\n      pop\n      jump\t// out\n        /* \"#utility.yul\":2841:2989   */\n    tag_83:\n        /* \"#utility.yul\":2943:2954   */\n      0x00\n        /* \"#utility.yul\":2980:2983   */\n      dup2\n        /* \"#utility.yul\":2965:2983   */\n      swap1\n      pop\n        /* \"#utility.yul\":2841:2989   */\n      swap3\n      swap2\n      pop\n      pop\n      jump\t// out\n        /* \"#utility.yul\":2995:3147   */\n    tag_84:\n        /* \"#utility.yul\":3135:3139   */\n      0x4869000000000000000000000000000000000000000000000000000000000000\n        /* \"#utility.yul\":3131:3132   */\n      0x00\n        /* \"#utility.yul\":3123:3129   */\n      dup3\n        /* \"#utility.yul\":3119:3133   */\n      add\n        /* \"#utility.yul\":3112:3140   */\n      mstore\n        /* \"#utility.yul\":2995:3147   */\n      pop\n      jump\t// out\n        /* \"#utility.yul\":3153:3553   */\n    tag_85:\n        /* \"#utility.yul\":3313:3316   */\n      0x00\n        /* \"#utility.yul\":3334:3418   */\n      tag_139\n        /* \"#utility.yul\":3416:3417   */\n      0x02\n        /* \"#utility.yul\":3411:3414   */\n      dup4\n        /* \"#utility.yul\":3334:3418   */\n      tag_83\n      jump\t// in\n    tag_139:\n        /* \"#utility.yul\":3327:3418   */\n      swap2\n      pop\n        /* \"#utility.yul\":3427:3520   */\n      tag_140\n        /* \"#utility.yul\":3516:3519   */\n      dup3\n        /* \"#utility.yul\":3427:3520   */\n      tag_84\n      jump\t// in\n    tag_140:\n        /* \"#utility.yul\":3545:3546   */\n      0x02\n        /* \"#utility.yul\":3540:3543   */\n      dup3\n        /* \"#utility.yul\":3536:3547   */\n      add\n        /* \"#utility.yul\":3529:3547   */\n      swap1\n      pop\n        /* \"#utility.yul\":3153:3553   */\n      swap2\n      swap1\n      pop\n      jump\t// out\n        /* \"#utility.yul\":3559:3714   */\n    tag_86:\n        /* \"#utility.yul\":3699:3706   */\n      0x48656c6c6f000000000000000000000000000000000000000000000000000000\n        /* \"#utility.yul\":3695:3696   */\n      0x00\n        /* \"#utility.yul\":3687:3693   */\n      dup3\n        /* \"#utility.yul\":3683:3697   */\n      add\n        /* \"#utility.yul\":3676:3707   */\n      mstore\n        /* \"#utility.yul\":3559:3714   */\n      pop\n      jump\t// out\n        /* \"#utility.yul\":3720:4120   */\n    tag_87:\n        /* \"#utility.yul\":3880:3883   */\n      0x00\n        /* \"#utility.yul\":3901:3985   */\n      tag_143\n        /* \"#utility.yul\":3983:3984   */\n      0x05\n        /* \"#utility.yul\":3978:3981   */\n      dup4\n        /* \"#utility.yul\":3901:3985   */\n      tag_83\n      jump\t// in\n    tag_143:\n        /* \"#utility.yul\":3894:3985   */\n      swap2\n      pop\n        /* \"#utility.yul\":3994:4087   */\n      tag_144\n        /* \"#utility.yul\":4083:4086   */\n      dup3\n        /* \"#utility.yul\":3994:4087   */\n      tag_86\n      jump\t// in\n    tag_144:\n        /* \"#utility.yul\":4112:4113   */\n      0x05\n        /* \"#utility.yul\":4107:4110   */\n      dup3\n        /* \"#utility.yul\":4103:4114   */\n      add\n        /* \"#utility.yul\":4096:4114   */\n      swap1\n      pop\n        /* \"#utility.yul\":3720:4120   */\n      swap2\n      swap1\n      pop\n      jump\t// out\n        /* \"#utility.yul\":4126:4773   */\n    tag_51:\n        /* \"#utility.yul\":4412:4415   */\n      0x00\n        /* \"#utility.yul\":4434:4582   */\n      tag_146\n        /* \"#utility.yul\":4578:4581   */\n      dup3\n        /* \"#utility.yul\":4434:4582   */\n      tag_85\n      jump\t// in\n    tag_146:\n        /* \"#utility.yul\":4427:4582   */\n      swap2\n      pop\n        /* \"#utility.yul\":4599:4747   */\n      tag_147\n        /* \"#utility.yul\":4743:4746   */\n      dup3\n        /* \"#utility.yul\":4599:4747   */\n      tag_87\n      jump\t// in\n    tag_147:\n        /* \"#utility.yul\":4592:4747   */\n      swap2\n      pop\n        /* \"#utility.yul\":4764:4767   */\n      dup2\n        /* \"#utility.yul\":4757:4767   */\n      swap1\n      pop\n        /* \"#utility.yul\":4126:4773   */\n      swap2\n      swap1\n      pop\n      jump\t// out\n        /* \"#utility.yul\":4779:4864   */\n    tag_88:\n        /* \"#utility.yul\":4824:4831   */\n      0x00\n        /* \"#utility.yul\":4853:4858   */\n      dup2\n        /* \"#utility.yul\":4842:4858   */\n      swap1\n      pop\n        /* \"#utility.yul\":4779:4864   */\n      swap2\n      swap1\n      pop\n      jump\t// out\n        /* \"#utility.yul\":4870:4956   */\n    tag_89:\n        /* \"#utility.yul\":4905:4912   */\n      0x00\n        /* \"#utility.yul\":4945:4949   */\n      0xff\n        /* \"#utility.yul\":4938:4943   */\n      dup3\n        /* \"#utility.yul\":4934:4950   */\n      and\n        /* \"#utility.yul\":4923:4950   */\n      swap1\n      pop\n        /* \"#utility.yul\":4870:4956   */\n      swap2\n      swap1\n      pop\n      jump\t// out\n        /* \"#utility.yul\":4962:5022   */\n    tag_90:\n        /* \"#utility.yul\":4990:4993   */\n      0x00\n        /* \"#utility.yul\":5011:5016   */\n      dup2\n        /* \"#utility.yul\":5004:5016   */\n      swap1\n      pop\n        /* \"#utility.yul\":4962:5022   */\n      swap2\n      swap1\n      pop\n      jump\t// out\n        /* \"#utility.yul\":5028:5182   */\n    tag_91:\n        /* \"#utility.yul\":5084:5093   */\n      0x00\n        /* \"#utility.yul\":5117:5176   */\n      tag_152\n        /* \"#utility.yul\":5133:5175   */\n      tag_153\n        /* \"#utility.yul\":5142:5174   */\n      tag_154\n        /* \"#utility.yul\":5168:5173   */\n      dup5\n        /* \"#utility.yul\":5142:5174   */\n      tag_88\n      jump\t// in\n    tag_154:\n        /* \"#utility.yul\":5133:5175   */\n      tag_90\n      jump\t// in\n    tag_153:\n        /* \"#utility.yul\":5117:5176   */\n      tag_89\n      jump\t// in\n    tag_152:\n        /* \"#utility.yul\":5104:5176   */\n      swap1\n      pop\n        /* \"#utility.yul\":5028:5182   */\n      swap2\n      swap1\n      pop\n      jump\t// out\n        /* \"#utility.yul\":5188:5331   */\n    tag_92:\n        /* \"#utility.yul\":5281:5324   */\n      tag_156\n        /* \"#utility.yul\":5318:5323   */\n      dup2\n        /* \"#utility.yul\":5281:5324   */\n      tag_91\n      jump\t// in\n    tag_156:\n        /* \"#utility.yul\":5276:5279   */\n      dup3\n        /* \"#utility.yul\":5269:5325   */\n      mstore\n        /* \"#utility.yul\":5188:5331   */\n      pop\n      pop\n      jump\t// out\n        /* \"#utility.yul\":5337:5571   */\n    tag_54:\n        /* \"#utility.yul\":5436:5440   */\n      0x00\n        /* \"#utility.yul\":5474:5476   */\n      0x20\n        /* \"#utility.yul\":5463:5472   */\n      dup3\n        /* \"#utility.yul\":5459:5477   */\n      add\n        /* \"#utility.yul\":5451:5477   */\n      swap1\n      pop\n        /* \"#utility.yul\":5487:5564   */\n      tag_158\n        /* \"#utility.yul\":5561:5562   */\n      0x00\n        /* \"#utility.yul\":5550:5559   */\n      dup4\n        /* \"#utility.yul\":5546:5563   */\n      add\n        /* \"#utility.yul\":5537:5543   */\n      dup5\n        /* \"#utility.yul\":5487:5564   */\n      tag_92\n      jump\t// in\n    tag_158:\n        /* \"#utility.yul\":5337:5571   */\n      swap3\n      swap2\n      pop\n      pop\n      jump\t// out\n        /* \"#utility.yul\":5577:5738   */\n    tag_93:\n        /* \"#utility.yul\":5717:5730   */\n      0x48656c6c6f205468657265000000000000000000000000000000000000000000\n        /* \"#utility.yul\":5713:5714   */\n      0x00\n        /* \"#utility.yul\":5705:5711   */\n      dup3\n        /* \"#utility.yul\":5701:5715   */\n      add\n        /* \"#utility.yul\":5694:5731   */\n      mstore\n        /* \"#utility.yul\":5577:5738   */\n      pop\n      jump\t// out\n        /* \"#utility.yul\":5744:6146   */\n    tag_94:\n        /* \"#utility.yul\":5904:5907   */\n      0x00\n        /* \"#utility.yul\":5925:6010   */\n      tag_161\n        /* \"#utility.yul\":6007:6009   */\n      0x0b\n        /* \"#utility.yul\":6002:6005   */\n      dup4\n        /* \"#utility.yul\":5925:6010   */\n      tag_83\n      jump\t// in\n    tag_161:\n        /* \"#utility.yul\":5918:6010   */\n      swap2\n      pop\n        /* \"#utility.yul\":6019:6112   */\n      tag_162\n        /* \"#utility.yul\":6108:6111   */\n      dup3\n        /* \"#utility.yul\":6019:6112   */\n      tag_93\n      jump\t// in\n    tag_162:\n        /* \"#utility.yul\":6137:6139   */\n      0x0b\n        /* \"#utility.yul\":6132:6135   */\n      dup3\n        /* \"#utility.yul\":6128:6140   */\n      add\n        /* \"#utility.yul\":6121:6140   */\n      swap1\n      pop\n        /* \"#utility.yul\":5744:6146   */\n      swap2\n      swap1\n      pop\n      jump\t// out\n        /* \"#utility.yul\":6152:6533   */\n    tag_57:\n        /* \"#utility.yul\":6337:6340   */\n      0x00\n        /* \"#utility.yul\":6359:6507   */\n      tag_164\n        /* \"#utility.yul\":6503:6506   */\n      dup3\n        /* \"#utility.yul\":6359:6507   */\n      tag_94\n      jump\t// in\n    tag_164:\n        /* \"#utility.yul\":6352:6507   */\n      swap2\n      pop\n        /* \"#utility.yul\":6524:6527   */\n      dup2\n        /* \"#utility.yul\":6517:6527   */\n      swap1\n      pop\n        /* \"#utility.yul\":6152:6533   */\n      swap2\n      swap1\n      pop\n      jump\t// out\n        /* \"#utility.yul\":6539:6904   */\n    tag_95:\n        /* \"#utility.yul\":6681:6684   */\n      0x00\n        /* \"#utility.yul\":6702:6768   */\n      tag_166\n        /* \"#utility.yul\":6766:6767   */\n      0x02\n        /* \"#utility.yul\":6761:6764   */\n      dup4\n        /* \"#utility.yul\":6702:6768   */\n      tag_76\n      jump\t// in\n    tag_166:\n        /* \"#utility.yul\":6695:6768   */\n      swap2\n      pop\n        /* \"#utility.yul\":6777:6870   */\n      tag_167\n        /* \"#utility.yul\":6866:6869   */\n      dup3\n        /* \"#utility.yul\":6777:6870   */\n      tag_84\n      jump\t// in\n    tag_167:\n        /* \"#utility.yul\":6895:6897   */\n      0x20\n        /* \"#utility.yul\":6890:6893   */\n      dup3\n        /* \"#utility.yul\":6886:6898   */\n      add\n        /* \"#utility.yul\":6879:6898   */\n      swap1\n      pop\n        /* \"#utility.yul\":6539:6904   */\n      swap2\n      swap1\n      pop\n      jump\t// out\n        /* \"#utility.yul\":6910:7275   */\n    tag_96:\n        /* \"#utility.yul\":7052:7055   */\n      0x00\n        /* \"#utility.yul\":7073:7139   */\n      tag_169\n        /* \"#utility.yul\":7137:7138   */\n      0x05\n        /* \"#utility.yul\":7132:7135   */\n      dup4\n        /* \"#utility.yul\":7073:7139   */\n      tag_76\n      jump\t// in\n    tag_169:\n        /* \"#utility.yul\":7066:7139   */\n      swap2\n      pop\n        /* \"#utility.yul\":7148:7241   */\n      tag_170\n        /* \"#utility.yul\":7237:7240   */\n      dup3\n        /* \"#utility.yul\":7148:7241   */\n      tag_86\n      jump\t// in\n    tag_170:\n        /* \"#utility.yul\":7266:7268   */\n      0x20\n        /* \"#utility.yul\":7261:7264   */\n      dup3\n        /* \"#utility.yul\":7257:7269   */\n      add\n        /* \"#utility.yul\":7250:7269   */\n      swap1\n      pop\n        /* \"#utility.yul\":6910:7275   */\n      swap2\n      swap1\n      pop\n      jump\t// out\n        /* \"#utility.yul\":7281:8007   */\n    tag_61:\n        /* \"#utility.yul\":7548:7552   */\n      0x00\n        /* \"#utility.yul\":7586:7588   */\n      0x40\n        /* \"#utility.yul\":7575:7584   */\n      dup3\n        /* \"#utility.yul\":7571:7589   */\n      add\n        /* \"#utility.yul\":7563:7589   */\n      swap1\n      pop\n        /* \"#utility.yul\":7635:7644   */\n      dup2\n        /* \"#utility.yul\":7629:7633   */\n      dup2\n        /* \"#utility.yul\":7625:7645   */\n      sub\n        /* \"#utility.yul\":7621:7622   */\n      0x00\n        /* \"#utility.yul\":7610:7619   */\n      dup4\n        /* \"#utility.yul\":7606:7623   */\n      add\n        /* \"#utility.yul\":7599:7646   */\n      mstore\n        /* \"#utility.yul\":7663:7794   */\n      tag_172\n        /* \"#utility.yul\":7789:7793   */\n      dup2\n        /* \"#utility.yul\":7663:7794   */\n      tag_95\n      jump\t// in\n    tag_172:\n        /* \"#utility.yul\":7655:7794   */\n      swap1\n      pop\n        /* \"#utility.yul\":7841:7850   */\n      dup2\n        /* \"#utility.yul\":7835:7839   */\n      dup2\n        /* \"#utility.yul\":7831:7851   */\n      sub\n        /* \"#utility.yul\":7826:7828   */\n      0x20\n        /* \"#utility.yul\":7815:7824   */\n      dup4\n        /* \"#utility.yul\":7811:7829   */\n      add\n        /* \"#utility.yul\":7804:7852   */\n      mstore\n        /* \"#utility.yul\":7869:8000   */\n      tag_173\n        /* \"#utility.yul\":7995:7999   */\n      dup2\n        /* \"#utility.yul\":7869:8000   */\n      tag_96\n      jump\t// in\n    tag_173:\n        /* \"#utility.yul\":7861:8000   */\n      swap1\n      pop\n        /* \"#utility.yul\":7281:8007   */\n      swap2\n      swap1\n      pop\n      jump\t// out\n        /* \"#utility.yul\":8013:8088   */\n    tag_97:\n        /* \"#utility.yul\":8046:8052   */\n      0x00\n        /* \"#utility.yul\":8079:8081   */\n      0x40\n        /* \"#utility.yul\":8073:8082   */\n      mload\n        /* \"#utility.yul\":8063:8082   */\n      swap1\n      pop\n        /* \"#utility.yul\":8013:8088   */\n      swap1\n      jump\t// out\n        /* \"#utility.yul\":8094:8211   */\n    tag_98:\n        /* \"#utility.yul\":8203:8204   */\n      0x00\n        /* \"#utility.yul\":8200:8201   */\n      dup1\n        /* \"#utility.yul\":8193:8205   */\n      revert\n        /* \"#utility.yul\":8217:8334   */\n    tag_99:\n        /* \"#utility.yul\":8326:8327   */\n      0x00\n        /* \"#utility.yul\":8323:8324   */\n      dup1\n        /* \"#utility.yul\":8316:8328   */\n      revert\n        /* \"#utility.yul\":8340:8457   */\n    tag_100:\n        /* \"#utility.yul\":8449:8450   */\n      0x00\n        /* \"#utility.yul\":8446:8447   */\n      dup1\n        /* \"#utility.yul\":8439:8451   */\n      revert\n        /* \"#utility.yul\":8463:8580   */\n    tag_101:\n        /* \"#utility.yul\":8572:8573   */\n      0x00\n        /* \"#utility.yul\":8569:8570   */\n      dup1\n        /* \"#utility.yul\":8562:8574   */\n      revert\n        /* \"#utility.yul\":8586:8766   */\n    tag_102:\n        /* \"#utility.yul\":8634:8711   */\n      0x4e487b7100000000000000000000000000000000000000000000000000000000\n        /* \"#utility.yul\":8631:8632   */\n      0x00\n        /* \"#utility.yul\":8624:8712   */\n      mstore\n        /* \"#utility.yul\":8731:8735   */\n      0x41\n        /* \"#utility.yul\":8728:8729   */\n      0x04\n        /* \"#utility.yul\":8721:8736   */\n      mstore\n        /* \"#utility.yul\":8755:8759   */\n      0x24\n        /* \"#utility.yul\":8752:8753   */\n      0x00\n        /* \"#utility.yul\":8745:8760   */\n      revert\n        /* \"#utility.yul\":8772:9053   */\n    tag_103:\n        /* \"#utility.yul\":8855:8882   */\n      tag_181\n        /* \"#utility.yul\":8877:8881   */\n      dup3\n        /* \"#utility.yul\":8855:8882   */\n      tag_78\n      jump\t// in\n    tag_181:\n        /* \"#utility.yul\":8847:8853   */\n      dup2\n        /* \"#utility.yul\":8843:8883   */\n      add\n        /* \"#utility.yul\":8985:8991   */\n      dup2\n        /* \"#utility.yul\":8973:8983   */\n      dup2\n        /* \"#utility.yul\":8970:8992   */\n      lt\n        /* \"#utility.yul\":8949:8967   */\n      0xffffffffffffffff\n        /* \"#utility.yul\":8937:8947   */\n      dup3\n        /* \"#utility.yul\":8934:8968   */\n      gt\n        /* \"#utility.yul\":8931:8993   */\n      or\n        /* \"#utility.yul\":8928:9016   */\n      iszero\n      tag_182\n      jumpi\n        /* \"#utility.yul\":8996:9014   */\n      tag_183\n      tag_102\n      jump\t// in\n    tag_183:\n        /* \"#utility.yul\":8928:9016   */\n    tag_182:\n        /* \"#utility.yul\":9036:9046   */\n      dup1\n        /* \"#utility.yul\":9032:9034   */\n      0x40\n        /* \"#utility.yul\":9025:9047   */\n      mstore\n        /* \"#utility.yul\":8815:9053   */\n      pop\n        /* \"#utility.yul\":8772:9053   */\n      pop\n      pop\n      jump\t// out\n        /* \"#utility.yul\":9059:9188   */\n    tag_104:\n        /* \"#utility.yul\":9093:9099   */\n      0x00\n        /* \"#utility.yul\":9120:9140   */\n      tag_185\n      tag_97\n      jump\t// in\n    tag_185:\n        /* \"#utility.yul\":9110:9140   */\n      swap1\n      pop\n        /* \"#utility.yul\":9149:9182   */\n      tag_186\n        /* \"#utility.yul\":9177:9181   */\n      dup3\n        /* \"#utility.yul\":9169:9175   */\n      dup3\n        /* \"#utility.yul\":9149:9182   */\n      tag_103\n      jump\t// in\n    tag_186:\n        /* \"#utility.yul\":9059:9188   */\n      swap2\n      swap1\n      pop\n      jump\t// out\n        /* \"#utility.yul\":9194:9502   */\n    tag_105:\n        /* \"#utility.yul\":9256:9260   */\n      0x00\n        /* \"#utility.yul\":9346:9364   */\n      0xffffffffffffffff\n        /* \"#utility.yul\":9338:9344   */\n      dup3\n        /* \"#utility.yul\":9335:9365   */\n      gt\n        /* \"#utility.yul\":9332:9388   */\n      iszero\n      tag_188\n      jumpi\n        /* \"#utility.yul\":9368:9386   */\n      tag_189\n      tag_102\n      jump\t// in\n    tag_189:\n        /* \"#utility.yul\":9332:9388   */\n    tag_188:\n        /* \"#utility.yul\":9406:9435   */\n      tag_190\n        /* \"#utility.yul\":9428:9434   */\n      dup3\n        /* \"#utility.yul\":9406:9435   */\n      tag_78\n      jump\t// in\n    tag_190:\n        /* \"#utility.yul\":9398:9435   */\n      swap1\n      pop\n        /* \"#utility.yul\":9490:9494   */\n      0x20\n        /* \"#utility.yul\":9484:9488   */\n      dup2\n        /* \"#utility.yul\":9480:9495   */\n      add\n        /* \"#utility.yul\":9472:9495   */\n      swap1\n      pop\n        /* \"#utility.yul\":9194:9502   */\n      swap2\n      swap1\n      pop\n      jump\t// out\n        /* \"#utility.yul\":9508:9942   */\n    tag_106:\n        /* \"#utility.yul\":9597:9602   */\n      0x00\n        /* \"#utility.yul\":9622:9688   */\n      tag_192\n        /* \"#utility.yul\":9638:9687   */\n      tag_193\n        /* \"#utility.yul\":9680:9686   */\n      dup5\n        /* \"#utility.yul\":9638:9687   */\n      tag_105\n      jump\t// in\n    tag_193:\n        /* \"#utility.yul\":9622:9688   */\n      tag_104\n      jump\t// in\n    tag_192:\n        /* \"#utility.yul\":9613:9688   */\n      swap1\n      pop\n        /* \"#utility.yul\":9711:9717   */\n      dup3\n        /* \"#utility.yul\":9704:9709   */\n      dup2\n        /* \"#utility.yul\":9697:9718   */\n      mstore\n        /* \"#utility.yul\":9749:9753   */\n      0x20\n        /* \"#utility.yul\":9742:9747   */\n      dup2\n        /* \"#utility.yul\":9738:9754   */\n      add\n        /* \"#utility.yul\":9787:9790   */\n      dup5\n        /* \"#utility.yul\":9778:9784   */\n      dup5\n        /* \"#utility.yul\":9773:9776   */\n      dup5\n        /* \"#utility.yul\":9769:9785   */\n      add\n        /* \"#utility.yul\":9766:9791   */\n      gt\n        /* \"#utility.yul\":9763:9875   */\n      iszero\n      tag_194\n      jumpi\n        /* \"#utility.yul\":9794:9873   */\n      tag_195\n      tag_101\n      jump\t// in\n    tag_195:\n        /* \"#utility.yul\":9763:9875   */\n    tag_194:\n        /* \"#utility.yul\":9884:9936   */\n      tag_196\n        /* \"#utility.yul\":9929:9935   */\n      dup5\n        /* \"#utility.yul\":9924:9927   */\n      dup3\n        /* \"#utility.yul\":9919:9922   */\n      dup6\n        /* \"#utility.yul\":9884:9936   */\n      tag_77\n      jump\t// in\n    tag_196:\n        /* \"#utility.yul\":9603:9942   */\n      pop\n        /* \"#utility.yul\":9508:9942   */\n      swap4\n      swap3\n      pop\n      pop\n      pop\n      jump\t// out\n        /* \"#utility.yul\":9962:10317   */\n    tag_107:\n        /* \"#utility.yul\":10029:10034   */\n      0x00\n        /* \"#utility.yul\":10078:10081   */\n      dup3\n        /* \"#utility.yul\":10071:10075   */\n      0x1f\n        /* \"#utility.yul\":10063:10069   */\n      dup4\n        /* \"#utility.yul\":10059:10076   */\n      add\n        /* \"#utility.yul\":10055:10082   */\n      slt\n        /* \"#utility.yul\":10045:10167   */\n      tag_198\n      jumpi\n        /* \"#utility.yul\":10086:10165   */\n      tag_199\n      tag_100\n      jump\t// in\n    tag_199:\n        /* \"#utility.yul\":10045:10167   */\n    tag_198:\n        /* \"#utility.yul\":10196:10202   */\n      dup2\n        /* \"#utility.yul\":10190:10203   */\n      mload\n        /* \"#utility.yul\":10221:10311   */\n      tag_200\n        /* \"#utility.yul\":10307:10310   */\n      dup5\n        /* \"#utility.yul\":10299:10305   */\n      dup3\n        /* \"#utility.yul\":10292:10296   */\n      0x20\n        /* \"#utility.yul\":10284:10290   */\n      dup7\n        /* \"#utility.yul\":10280:10297   */\n      add\n        /* \"#utility.yul\":10221:10311   */\n      tag_106\n      jump\t// in\n    tag_200:\n        /* \"#utility.yul\":10212:10311   */\n      swap2\n      pop\n        /* \"#utility.yul\":10035:10317   */\n      pop\n        /* \"#utility.yul\":9962:10317   */\n      swap3\n      swap2\n      pop\n      pop\n      jump\t// out\n        /* \"#utility.yul\":10323:10847   */\n    tag_65:\n        /* \"#utility.yul\":10403:10409   */\n      0x00\n        /* \"#utility.yul\":10452:10454   */\n      0x20\n        /* \"#utility.yul\":10440:10449   */\n      dup3\n        /* \"#utility.yul\":10431:10438   */\n      dup5\n        /* \"#utility.yul\":10427:10450   */\n      sub\n        /* \"#utility.yul\":10423:10455   */\n      slt\n        /* \"#utility.yul\":10420:10539   */\n      iszero\n      tag_202\n      jumpi\n        /* \"#utility.yul\":10458:10537   */\n      tag_203\n      tag_98\n      jump\t// in\n    tag_203:\n        /* \"#utility.yul\":10420:10539   */\n    tag_202:\n        /* \"#utility.yul\":10599:10600   */\n      0x00\n        /* \"#utility.yul\":10588:10597   */\n      dup3\n        /* \"#utility.yul\":10584:10601   */\n      add\n        /* \"#utility.yul\":10578:10602   */\n      mload\n        /* \"#utility.yul\":10629:10647   */\n      0xffffffffffffffff\n        /* \"#utility.yul\":10621:10627   */\n      dup2\n        /* \"#utility.yul\":10618:10648   */\n      gt\n        /* \"#utility.yul\":10615:10732   */\n      iszero\n      tag_204\n      jumpi\n        /* \"#utility.yul\":10651:10730   */\n      tag_205\n      tag_99\n      jump\t// in\n    tag_205:\n        /* \"#utility.yul\":10615:10732   */\n    tag_204:\n        /* \"#utility.yul\":10756:10830   */\n      tag_206\n        /* \"#utility.yul\":10822:10829   */\n      dup5\n        /* \"#utility.yul\":10813:10819   */\n      dup3\n        /* \"#utility.yul\":10802:10811   */\n      dup6\n        /* \"#utility.yul\":10798:10820   */\n      add\n        /* \"#utility.yul\":10756:10830   */\n      tag_107\n      jump\t// in\n    tag_206:\n        /* \"#utility.yul\":10746:10830   */\n      swap2\n      pop\n        /* \"#utility.yul\":10549:10840   */\n      pop\n        /* \"#utility.yul\":10323:10847   */\n      swap3\n      swap2\n      pop\n      pop\n      jump\t// out\n        /* \"#utility.yul\":10853:11706   */\n    tag_71:\n        /* \"#utility.yul\":10952:10958   */\n      0x00\n        /* \"#utility.yul\":10960:10966   */\n      dup1\n        /* \"#utility.yul\":11009:11011   */\n      0x40\n        /* \"#utility.yul\":10997:11006   */\n      dup4\n        /* \"#utility.yul\":10988:10995   */\n      dup6\n        /* \"#utility.yul\":10984:11007   */\n      sub\n        /* \"#utility.yul\":10980:11012   */\n      slt\n        /* \"#utility.yul\":10977:11096   */\n      iszero\n      tag_208\n      jumpi\n        /* \"#utility.yul\":11015:11094   */\n      tag_209\n      tag_98\n      jump\t// in\n    tag_209:\n        /* \"#utility.yul\":10977:11096   */\n    tag_208:\n        /* \"#utility.yul\":11156:11157   */\n      0x00\n        /* \"#utility.yul\":11145:11154   */\n      dup4\n        /* \"#utility.yul\":11141:11158   */\n      add\n        /* \"#utility.yul\":11135:11159   */\n      mload\n        /* \"#utility.yul\":11186:11204   */\n      0xffffffffffffffff\n        /* \"#utility.yul\":11178:11184   */\n      dup2\n        /* \"#utility.yul\":11175:11205   */\n      gt\n        /* \"#utility.yul\":11172:11289   */\n      iszero\n      tag_210\n      jumpi\n        /* \"#utility.yul\":11208:11287   */\n      tag_211\n      tag_99\n      jump\t// in\n    tag_211:\n        /* \"#utility.yul\":11172:11289   */\n    tag_210:\n        /* \"#utility.yul\":11313:11387   */\n      tag_212\n        /* \"#utility.yul\":11379:11386   */\n      dup6\n        /* \"#utility.yul\":11370:11376   */\n      dup3\n        /* \"#utility.yul\":11359:11368   */\n      dup7\n        /* \"#utility.yul\":11355:11377   */\n      add\n        /* \"#utility.yul\":11313:11387   */\n      tag_107\n      jump\t// in\n    tag_212:\n        /* \"#utility.yul\":11303:11387   */\n      swap3\n      pop\n        /* \"#utility.yul\":11106:11397   */\n      pop\n        /* \"#utility.yul\":11457:11459   */\n      0x20\n        /* \"#utility.yul\":11446:11455   */\n      dup4\n        /* \"#utility.yul\":11442:11460   */\n      add\n        /* \"#utility.yul\":11436:11461   */\n      mload\n        /* \"#utility.yul\":11488:11506   */\n      0xffffffffffffffff\n        /* \"#utility.yul\":11480:11486   */\n      dup2\n        /* \"#utility.yul\":11477:11507   */\n      gt\n        /* \"#utility.yul\":11474:11591   */\n      iszero\n      tag_213\n      jumpi\n        /* \"#utility.yul\":11510:11589   */\n      tag_214\n      tag_99\n      jump\t// in\n    tag_214:\n        /* \"#utility.yul\":11474:11591   */\n    tag_213:\n        /* \"#utility.yul\":11615:11689   */\n      tag_215\n        /* \"#utility.yul\":11681:11688   */\n      dup6\n        /* \"#utility.yul\":11672:11678   */\n      dup3\n        /* \"#utility.yul\":11661:11670   */\n      dup7\n        /* \"#utility.yul\":11657:11679   */\n      add\n        /* \"#utility.yul\":11615:11689   */\n      tag_107\n      jump\t// in\n    tag_215:\n        /* \"#utility.yul\":11605:11689   */\n      swap2\n      pop\n        /* \"#utility.yul\":11407:11699   */\n      pop\n        /* \"#utility.yul\":10853:11706   */\n      swap3\n      pop\n      swap3\n      swap1\n      pop\n      jump\t// out\n        /* \"#utility.yul\":11712:12078   */\n    tag_108:\n        /* \"#utility.yul\":11854:11857   */\n      0x00\n        /* \"#utility.yul\":11875:11942   */\n      tag_217\n        /* \"#utility.yul\":11939:11941   */\n      0x0b\n        /* \"#utility.yul\":11934:11937   */\n      dup4\n        /* \"#utility.yul\":11875:11942   */\n      tag_76\n      jump\t// in\n    tag_217:\n        /* \"#utility.yul\":11868:11942   */\n      swap2\n      pop\n        /* \"#utility.yul\":11951:12044   */\n      tag_218\n        /* \"#utility.yul\":12040:12043   */\n      dup3\n        /* \"#utility.yul\":11951:12044   */\n      tag_93\n      jump\t// in\n    tag_218:\n        /* \"#utility.yul\":12069:12071   */\n      0x20\n        /* \"#utility.yul\":12064:12067   */\n      dup3\n        /* \"#utility.yul\":12060:12072   */\n      add\n        /* \"#utility.yul\":12053:12072   */\n      swap1\n      pop\n        /* \"#utility.yul\":11712:12078   */\n      swap2\n      swap1\n      pop\n      jump\t// out\n        /* \"#utility.yul\":12084:12503   */\n    tag_74:\n        /* \"#utility.yul\":12250:12254   */\n      0x00\n        /* \"#utility.yul\":12288:12290   */\n      0x20\n        /* \"#utility.yul\":12277:12286   */\n      dup3\n        /* \"#utility.yul\":12273:12291   */\n      add\n        /* \"#utility.yul\":12265:12291   */\n      swap1\n      pop\n        /* \"#utility.yul\":12337:12346   */\n      dup2\n        /* \"#utility.yul\":12331:12335   */\n      dup2\n        /* \"#utility.yul\":12327:12347   */\n      sub\n        /* \"#utility.yul\":12323:12324   */\n      0x00\n        /* \"#utility.yul\":12312:12321   */\n      dup4\n        /* \"#utility.yul\":12308:12325   */\n      add\n        /* \"#utility.yul\":12301:12348   */\n      mstore\n        /* \"#utility.yul\":12365:12496   */\n      tag_220\n        /* \"#utility.yul\":12491:12495   */\n      dup2\n        /* \"#utility.yul\":12365:12496   */\n      tag_108\n      jump\t// in\n    tag_220:\n        /* \"#utility.yul\":12357:12496   */\n      swap1\n      pop\n        /* \"#utility.yul\":12084:12503   */\n      swap2\n      swap1\n      pop\n      jump\t// out\n\n    auxdata: 0xa2646970667358221220ede5f31f64d7b8b40f9cc108c27b8d74a6281e349b0d1fc833222d19fa06946264736f6c63430008120033\n}\n",
				"bytecode": {
					"linkReferences": {},
					"object": "608060405234801561001057600080fd5b5061095e806100206000396000f3fe608060405234801561001057600080fd5b506004361061009e5760003560e01c8063a6dc49b811610066578063a6dc49b814610139578063a77b036014610157578063b474871814610175578063c452d79b14610193578063ed5df365146101b25761009e565b806309a97cb8146100a3578063114a7610146100c157806315889d1a146100df5780632085f4b9146100fd578063406ec9f21461011b575b600080fd5b6100ab6101d0565b6040516100b89190610410565b60405180910390f35b6100c96101e5565b6040516100d69190610410565b60405180910390f35b6100e761020a565b6040516100f49190610487565b60405180910390f35b610105610238565b6040516101129190610487565b60405180910390f35b610123610263565b6040516101309190610487565b60405180910390f35b6101416102a6565b60405161014e9190610487565b60405180910390f35b61015f6102d1565b60405161016c9190610410565b60405180910390f35b61017d6102f9565b60405161018a9190610487565b60405180910390f35b61019b610324565b6040516101a99291906104a9565b60405180910390f35b6101ba610355565b6040516101c79190610487565b60405180910390f35b606060006101dc6102f9565b90508091505090565b60606040516020016101f690610583565b604051602081830303815290604052905090565b60606000600160405160200161022091906105f5565b60405160208183030381529060405290508091505090565b6060600060405160200161024b9061065c565b60405160208183030381529060405290508091505090565b606060006040518060400160405280600b81526020017f48656c6c6f20546865726500000000000000000000000000000000000000000081525090508091505090565b606060006040516020016102b9906106b7565b60405160208183030381529060405290508091505090565b606060006102dd610355565b8060200190518101906102f09190610824565b90508091505090565b6060600060405160200161030c90610583565b60405160208183030381529060405290508091505090565b6060806000806103326102a6565b806020019051810190610345919061086d565b9150915081819350935050509091565b6060600060405160200161036890610908565b60405160208183030381529060405290508091505090565b600081519050919050565b600082825260208201905092915050565b60005b838110156103ba57808201518184015260208101905061039f565b60008484015250505050565b6000601f19601f8301169050919050565b60006103e282610380565b6103ec818561038b565b93506103fc81856020860161039c565b610405816103c6565b840191505092915050565b6000602082019050818103600083015261042a81846103d7565b905092915050565b600081519050919050565b600082825260208201905092915050565b600061045982610432565b610463818561043d565b935061047381856020860161039c565b61047c816103c6565b840191505092915050565b600060208201905081810360008301526104a1818461044e565b905092915050565b600060408201905081810360008301526104c381856103d7565b905081810360208301526104d781846103d7565b90509392505050565b600081905092915050565b7f4869000000000000000000000000000000000000000000000000000000000000600082015250565b60006105216002836104e0565b915061052c826104eb565b600282019050919050565b7f48656c6c6f000000000000000000000000000000000000000000000000000000600082015250565b600061056d6005836104e0565b915061057882610537565b600582019050919050565b600061058e82610514565b915061059982610560565b9150819050919050565b6000819050919050565b600060ff82169050919050565b6000819050919050565b60006105df6105da6105d5846105a3565b6105ba565b6105ad565b9050919050565b6105ef816105c4565b82525050565b600060208201905061060a60008301846105e6565b92915050565b7f48656c6c6f205468657265000000000000000000000000000000000000000000600082015250565b6000610646600b836104e0565b915061065182610610565b600b82019050919050565b600061066782610639565b9150819050919050565b600061067e60028361038b565b9150610689826104eb565b602082019050919050565b60006106a160058361038b565b91506106ac82610537565b602082019050919050565b600060408201905081810360008301526106d081610671565b905081810360208301526106e381610694565b9050919050565b6000604051905090565b600080fd5b600080fd5b600080fd5b600080fd5b7f4e487b7100000000000000000000000000000000000000000000000000000000600052604160045260246000fd5b610740826103c6565b810181811067ffffffffffffffff8211171561075f5761075e610708565b5b80604052505050565b60006107726106ea565b905061077e8282610737565b919050565b600067ffffffffffffffff82111561079e5761079d610708565b5b6107a7826103c6565b9050602081019050919050565b60006107c76107c284610783565b610768565b9050828152602081018484840111156107e3576107e2610703565b5b6107ee84828561039c565b509392505050565b600082601f83011261080b5761080a6106fe565b5b815161081b8482602086016107b4565b91505092915050565b60006020828403121561083a576108396106f4565b5b600082015167ffffffffffffffff811115610858576108576106f9565b5b610864848285016107f6565b91505092915050565b60008060408385031215610884576108836106f4565b5b600083015167ffffffffffffffff8111156108a2576108a16106f9565b5b6108ae858286016107f6565b925050602083015167ffffffffffffffff8111156108cf576108ce6106f9565b5b6108db858286016107f6565b9150509250929050565b60006108f2600b8361038b565b91506108fd82610610565b602082019050919050565b60006020820190508181036000830152610921816108e5565b905091905056fea2646970667358221220ede5f31f64d7b8b40f9cc108c27b8d74a6281e349b0d1fc833222d19fa06946264736f6c63430008120033",
					"opcodes": "PUSH1 0x80 PUSH1 0x40 MSTORE CALLVALUE DUP1 ISZERO PUSH2 0x10 JUMPI PUSH1 0x0 DUP1 REVERT JUMPDEST POP PUSH2 0x95E DUP1 PUSH2 0x20 PUSH1 0x0 CODECOPY PUSH1 0x0 RETURN INVALID PUSH1 0x80 PUSH1 0x40 MSTORE CALLVALUE DUP1 ISZERO PUSH2 0x10 JUMPI PUSH1 0x0 DUP1 REVERT JUMPDEST POP PUSH1 0x4 CALLDATASIZE LT PUSH2 0x9E JUMPI PUSH1 0x0 CALLDATALOAD PUSH1 0xE0 SHR DUP1 PUSH4 0xA6DC49B8 GT PUSH2 0x66 JUMPI DUP1 PUSH4 0xA6DC49B8 EQ PUSH2 0x139 JUMPI DUP1 PUSH4 0xA77B0360 EQ PUSH2 0x157 JUMPI DUP1 PUSH4 0xB4748718 EQ PUSH2 0x175 JUMPI DUP1 PUSH4 0xC452D79B EQ PUSH2 0x193 JUMPI DUP1 PUSH4 0xED5DF365 EQ PUSH2 0x1B2 JUMPI PUSH2 0x9E JUMP JUMPDEST DUP1 PUSH4 0x9A97CB8 EQ PUSH2 0xA3 JUMPI DUP1 PUSH4 0x114A7610 EQ PUSH2 0xC1 JUMPI DUP1 PUSH4 0x15889D1A EQ PUSH2 0xDF JUMPI DUP1 PUSH4 0x2085F4B9 EQ PUSH2 0xFD JUMPI DUP1 PUSH4 0x406EC9F2 EQ PUSH2 0x11B JUMPI JUMPDEST PUSH1 0x0 DUP1 REVERT JUMPDEST PUSH2 0xAB PUSH2 0x1D0 JUMP JUMPDEST PUSH1 0x40 MLOAD PUSH2 0xB8 SWAP2 SWAP1 PUSH2 0x410 JUMP JUMPDEST PUSH1 0x40 MLOAD DUP1 SWAP2 SUB SWAP1 RETURN JUMPDEST PUSH2 0xC9 PUSH2 0x1E5 JUMP JUMPDEST PUSH1 0x40 MLOAD PUSH2 0xD6 SWAP2 SWAP1 PUSH2 0x410 JUMP JUMPDEST PUSH1 0x40 MLOAD DUP1 SWAP2 SUB SWAP1 RETURN JUMPDEST PUSH2 0xE7 PUSH2 0x20A JUMP JUMPDEST PUSH1 0x40 MLOAD PUSH2 0xF4 SWAP2 SWAP1 PUSH2 0x487 JUMP JUMPDEST PUSH1 0x40 MLOAD DUP1 SWAP2 SUB SWAP1 RETURN JUMPDEST PUSH2 0x105 PUSH2 0x238 JUMP JUMPDEST PUSH1 0x40 MLOAD PUSH2 0x112 SWAP2 SWAP1 PUSH2 0x487 JUMP JUMPDEST PUSH1 0x40 MLOAD DUP1 SWAP2 SUB SWAP1 RETURN JUMPDEST PUSH2 0x123 PUSH2 0x263 JUMP JUMPDEST PUSH1 0x40 MLOAD PUSH2 0x130 SWAP2 SWAP1 PUSH2 0x487 JUMP JUMPDEST PUSH1 0x40 MLOAD DUP1 SWAP2 SUB SWAP1 RETURN JUMPDEST PUSH2 0x141 PUSH2 0x2A6 JUMP JUMPDEST PUSH1 0x40 MLOAD PUSH2 0x14E SWAP2 SWAP1 PUSH2 0x487 JUMP JUMPDEST PUSH1 0x40 MLOAD DUP1 SWAP2 SUB SWAP1 RETURN JUMPDEST PUSH2 0x15F PUSH2 0x2D1 JUMP JUMPDEST PUSH1 0x40 MLOAD PUSH2 0x16C SWAP2 SWAP1 PUSH2 0x410 JUMP JUMPDEST PUSH1 0x40 MLOAD DUP1 SWAP2 SUB SWAP1 RETURN JUMPDEST PUSH2 0x17D PUSH2 0x2F9 JUMP JUMPDEST PUSH1 0x40 MLOAD PUSH2 0x18A SWAP2 SWAP1 PUSH2 0x487 JUMP JUMPDEST PUSH1 0x40 MLOAD DUP1 SWAP2 SUB SWAP1 RETURN JUMPDEST PUSH2 0x19B PUSH2 0x324 JUMP JUMPDEST PUSH1 0x40 MLOAD PUSH2 0x1A9 SWAP3 SWAP2 SWAP1 PUSH2 0x4A9 JUMP JUMPDEST PUSH1 0x40 MLOAD DUP1 SWAP2 SUB SWAP1 RETURN JUMPDEST PUSH2 0x1BA PUSH2 0x355 JUMP JUMPDEST PUSH1 0x40 MLOAD PUSH2 0x1C7 SWAP2 SWAP1 PUSH2 0x487 JUMP JUMPDEST PUSH1 0x40 MLOAD DUP1 SWAP2 SUB SWAP1 RETURN JUMPDEST PUSH1 0x60 PUSH1 0x0 PUSH2 0x1DC PUSH2 0x2F9 JUMP JUMPDEST SWAP1 POP DUP1 SWAP2 POP POP SWAP1 JUMP JUMPDEST PUSH1 0x60 PUSH1 0x40 MLOAD PUSH1 0x20 ADD PUSH2 0x1F6 SWAP1 PUSH2 0x583 JUMP JUMPDEST PUSH1 0x40 MLOAD PUSH1 0x20 DUP2 DUP4 SUB SUB DUP2 MSTORE SWAP1 PUSH1 0x40 MSTORE SWAP1 POP SWAP1 JUMP JUMPDEST PUSH1 0x60 PUSH1 0x0 PUSH1 0x1 PUSH1 0x40 MLOAD PUSH1 0x20 ADD PUSH2 0x220 SWAP2 SWAP1 PUSH2 0x5F5 JUMP JUMPDEST PUSH1 0x40 MLOAD PUSH1 0x20 DUP2 DUP4 SUB SUB DUP2 MSTORE SWAP1 PUSH1 0x40 MSTORE SWAP1 POP DUP1 SWAP2 POP POP SWAP1 JUMP JUMPDEST PUSH1 0x60 PUSH1 0x0 PUSH1 0x40 MLOAD PUSH1 0x20 ADD PUSH2 0x24B SWAP1 PUSH2 0x65C JUMP JUMPDEST PUSH1 0x40 MLOAD PUSH1 0x20 DUP2 DUP4 SUB SUB DUP2 MSTORE SWAP1 PUSH1 0x40 MSTORE SWAP1 POP DUP1 SWAP2 POP POP SWAP1 JUMP JUMPDEST PUSH1 0x60 PUSH1 0x0 PUSH1 0x40 MLOAD DUP1 PUSH1 0x40 ADD PUSH1 0x40 MSTORE DUP1 PUSH1 0xB DUP2 MSTORE PUSH1 0x20 ADD PUSH32 0x48656C6C6F205468657265000000000000000000000000000000000000000000 DUP2 MSTORE POP SWAP1 POP DUP1 SWAP2 POP POP SWAP1 JUMP JUMPDEST PUSH1 0x60 PUSH1 0x0 PUSH1 0x40 MLOAD PUSH1 0x20 ADD PUSH2 0x2B9 SWAP1 PUSH2 0x6B7 JUMP JUMPDEST PUSH1 0x40 MLOAD PUSH1 0x20 DUP2 DUP4 SUB SUB DUP2 MSTORE SWAP1 PUSH1 0x40 MSTORE SWAP1 POP DUP1 SWAP2 POP POP SWAP1 JUMP JUMPDEST PUSH1 0x60 PUSH1 0x0 PUSH2 0x2DD PUSH2 0x355 JUMP JUMPDEST DUP1 PUSH1 0x20 ADD SWAP1 MLOAD DUP2 ADD SWAP1 PUSH2 0x2F0 SWAP2 SWAP1 PUSH2 0x824 JUMP JUMPDEST SWAP1 POP DUP1 SWAP2 POP POP SWAP1 JUMP JUMPDEST PUSH1 0x60 PUSH1 0x0 PUSH1 0x40 MLOAD PUSH1 0x20 ADD PUSH2 0x30C SWAP1 PUSH2 0x583 JUMP JUMPDEST PUSH1 0x40 MLOAD PUSH1 0x20 DUP2 DUP4 SUB SUB DUP2 MSTORE SWAP1 PUSH1 0x40 MSTORE SWAP1 POP DUP1 SWAP2 POP POP SWAP1 JUMP JUMPDEST PUSH1 0x60 DUP1 PUSH1 0x0 DUP1 PUSH2 0x332 PUSH2 0x2A6 JUMP JUMPDEST DUP1 PUSH1 0x20 ADD SWAP1 MLOAD DUP2 ADD SWAP1 PUSH2 0x345 SWAP2 SWAP1 PUSH2 0x86D JUMP JUMPDEST SWAP2 POP SWAP2 POP DUP2 DUP2 SWAP4 POP SWAP4 POP POP POP SWAP1 SWAP2 JUMP JUMPDEST PUSH1 0x60 PUSH1 0x0 PUSH1 0x40 MLOAD PUSH1 0x20 ADD PUSH2 0x368 SWAP1 PUSH2 0x908 JUMP JUMPDEST PUSH1 0x40 MLOAD PUSH1 0x20 DUP2 DUP4 SUB SUB DUP2 MSTORE SWAP1 PUSH1 0x40 MSTORE SWAP1 POP DUP1 SWAP2 POP POP SWAP1 JUMP JUMPDEST PUSH1 0x0 DUP2 MLOAD SWAP1 POP SWAP2 SWAP1 POP JUMP JUMPDEST PUSH1 0x0 DUP3 DUP3 MSTORE PUSH1 0x20 DUP3 ADD SWAP1 POP SWAP3 SWAP2 POP POP JUMP JUMPDEST PUSH1 0x0 JUMPDEST DUP4 DUP2 LT ISZERO PUSH2 0x3BA JUMPI DUP1 DUP3 ADD MLOAD DUP2 DUP5 ADD MSTORE PUSH1 0x20 DUP2 ADD SWAP1 POP PUSH2 0x39F JUMP JUMPDEST PUSH1 0x0 DUP5 DUP5 ADD MSTORE POP POP POP POP JUMP JUMPDEST PUSH1 0x0 PUSH1 0x1F NOT PUSH1 0x1F DUP4 ADD AND SWAP1 POP SWAP2 SWAP1 POP JUMP JUMPDEST PUSH1 0x0 PUSH2 0x3E2 DUP3 PUSH2 0x380 JUMP JUMPDEST PUSH2 0x3EC DUP2 DUP6 PUSH2 0x38B JUMP JUMPDEST SWAP4 POP PUSH2 0x3FC DUP2 DUP6 PUSH1 0x20 DUP7 ADD PUSH2 0x39C JUMP JUMPDEST PUSH2 0x405 DUP2 PUSH2 0x3C6 JUMP JUMPDEST DUP5 ADD SWAP2 POP POP SWAP3 SWAP2 POP POP JUMP JUMPDEST PUSH1 0x0 PUSH1 0x20 DUP3 ADD SWAP1 POP DUP2 DUP2 SUB PUSH1 0x0 DUP4 ADD MSTORE PUSH2 0x42A DUP2 DUP5 PUSH2 0x3D7 JUMP JUMPDEST SWAP1 POP SWAP3 SWAP2 POP POP JUMP JUMPDEST PUSH1 0x0 DUP2 MLOAD SWAP1 POP SWAP2 SWAP1 POP JUMP JUMPDEST PUSH1 0x0 DUP3 DUP3 MSTORE PUSH1 0x20 DUP3 ADD SWAP1 POP SWAP3 SWAP2 POP POP JUMP JUMPDEST PUSH1 0x0 PUSH2 0x459 DUP3 PUSH2 0x432 JUMP JUMPDEST PUSH2 0x463 DUP2 DUP6 PUSH2 0x43D JUMP JUMPDEST SWAP4 POP PUSH2 0x473 DUP2 DUP6 PUSH1 0x20 DUP7 ADD PUSH2 0x39C JUMP JUMPDEST PUSH2 0x47C DUP2 PUSH2 0x3C6 JUMP JUMPDEST DUP5 ADD SWAP2 POP POP SWAP3 SWAP2 POP POP JUMP JUMPDEST PUSH1 0x0 PUSH1 0x20 DUP3 ADD SWAP1 POP DUP2 DUP2 SUB PUSH1 0x0 DUP4 ADD MSTORE PUSH2 0x4A1 DUP2 DUP5 PUSH2 0x44E JUMP JUMPDEST SWAP1 POP SWAP3 SWAP2 POP POP JUMP JUMPDEST PUSH1 0x0 PUSH1 0x40 DUP3 ADD SWAP1 POP DUP2 DUP2 SUB PUSH1 0x0 DUP4 ADD MSTORE PUSH2 0x4C3 DUP2 DUP6 PUSH2 0x3D7 JUMP JUMPDEST SWAP1 POP DUP2 DUP2 SUB PUSH1 0x20 DUP4 ADD MSTORE PUSH2 0x4D7 DUP2 DUP5 PUSH2 0x3D7 JUMP JUMPDEST SWAP1 POP SWAP4 SWAP3 POP POP POP JUMP JUMPDEST PUSH1 0x0 DUP2 SWAP1 POP SWAP3 SWAP2 POP POP JUMP JUMPDEST PUSH32 0x4869000000000000000000000000000000000000000000000000000000000000 PUSH1 0x0 DUP3 ADD MSTORE POP JUMP JUMPDEST PUSH1 0x0 PUSH2 0x521 PUSH1 0x2 DUP4 PUSH2 0x4E0 JUMP JUMPDEST SWAP2 POP PUSH2 0x52C DUP3 PUSH2 0x4EB JUMP JUMPDEST PUSH1 0x2 DUP3 ADD SWAP1 POP SWAP2 SWAP1 POP JUMP JUMPDEST PUSH32 0x48656C6C6F000000000000000000000000000000000000000000000000000000 PUSH1 0x0 DUP3 ADD MSTORE POP JUMP JUMPDEST PUSH1 0x0 PUSH2 0x56D PUSH1 0x5 DUP4 PUSH2 0x4E0 JUMP JUMPDEST SWAP2 POP PUSH2 0x578 DUP3 PUSH2 0x537 JUMP JUMPDEST PUSH1 0x5 DUP3 ADD SWAP1 POP SWAP2 SWAP1 POP JUMP JUMPDEST PUSH1 0x0 PUSH2 0x58E DUP3 PUSH2 0x514 JUMP JUMPDEST SWAP2 POP PUSH2 0x599 DUP3 PUSH2 0x560 JUMP JUMPDEST SWAP2 POP DUP2 SWAP1 POP SWAP2 SWAP1 POP JUMP JUMPDEST PUSH1 0x0 DUP2 SWAP1 POP SWAP2 SWAP1 POP JUMP JUMPDEST PUSH1 0x0 PUSH1 0xFF DUP3 AND SWAP1 POP SWAP2 SWAP1 POP JUMP JUMPDEST PUSH1 0x0 DUP2 SWAP1 POP SWAP2 SWAP1 POP JUMP JUMPDEST PUSH1 0x0 PUSH2 0x5DF PUSH2 0x5DA PUSH2 0x5D5 DUP5 PUSH2 0x5A3 JUMP JUMPDEST PUSH2 0x5BA JUMP JUMPDEST PUSH2 0x5AD JUMP JUMPDEST SWAP1 POP SWAP2 SWAP1 POP JUMP JUMPDEST PUSH2 0x5EF DUP2 PUSH2 0x5C4 JUMP JUMPDEST DUP3 MSTORE POP POP JUMP JUMPDEST PUSH1 0x0 PUSH1 0x20 DUP3 ADD SWAP1 POP PUSH2 0x60A PUSH1 0x0 DUP4 ADD DUP5 PUSH2 0x5E6 JUMP JUMPDEST SWAP3 SWAP2 POP POP JUMP JUMPDEST PUSH32 0x48656C6C6F205468657265000000000000000000000000000000000000000000 PUSH1 0x0 DUP3 ADD MSTORE POP JUMP JUMPDEST PUSH1 0x0 PUSH2 0x646 PUSH1 0xB DUP4 PUSH2 0x4E0 JUMP JUMPDEST SWAP2 POP PUSH2 0x651 DUP3 PUSH2 0x610 JUMP JUMPDEST PUSH1 0xB DUP3 ADD SWAP1 POP SWAP2 SWAP1 POP JUMP JUMPDEST PUSH1 0x0 PUSH2 0x667 DUP3 PUSH2 0x639 JUMP JUMPDEST SWAP2 POP DUP2 SWAP1 POP SWAP2 SWAP1 POP JUMP JUMPDEST PUSH1 0x0 PUSH2 0x67E PUSH1 0x2 DUP4 PUSH2 0x38B JUMP JUMPDEST SWAP2 POP PUSH2 0x689 DUP3 PUSH2 0x4EB JUMP JUMPDEST PUSH1 0x20 DUP3 ADD SWAP1 POP SWAP2 SWAP1 POP JUMP JUMPDEST PUSH1 0x0 PUSH2 0x6A1 PUSH1 0x5 DUP4 PUSH2 0x38B JUMP JUMPDEST SWAP2 POP PUSH2 0x6AC DUP3 PUSH2 0x537 JUMP JUMPDEST PUSH1 0x20 DUP3 ADD SWAP1 POP SWAP2 SWAP1 POP JUMP JUMPDEST PUSH1 0x0 PUSH1 0x40 DUP3 ADD SWAP1 POP DUP2 DUP2 SUB PUSH1 0x0 DUP4 ADD MSTORE PUSH2 0x6D0 DUP2 PUSH2 0x671 JUMP JUMPDEST SWAP1 POP DUP2 DUP2 SUB PUSH1 0x20 DUP4 ADD MSTORE PUSH2 0x6E3 DUP2 PUSH2 0x694 JUMP JUMPDEST SWAP1 POP SWAP2 SWAP1 POP JUMP JUMPDEST PUSH1 0x0 PUSH1 0x40 MLOAD SWAP1 POP SWAP1 JUMP JUMPDEST PUSH1 0x0 DUP1 REVERT JUMPDEST PUSH1 0x0 DUP1 REVERT JUMPDEST PUSH1 0x0 DUP1 REVERT JUMPDEST PUSH1 0x0 DUP1 REVERT JUMPDEST PUSH32 0x4E487B7100000000000000000000000000000000000000000000000000000000 PUSH1 0x0 MSTORE PUSH1 0x41 PUSH1 0x4 MSTORE PUSH1 0x24 PUSH1 0x0 REVERT JUMPDEST PUSH2 0x740 DUP3 PUSH2 0x3C6 JUMP JUMPDEST DUP2 ADD DUP2 DUP2 LT PUSH8 0xFFFFFFFFFFFFFFFF DUP3 GT OR ISZERO PUSH2 0x75F JUMPI PUSH2 0x75E PUSH2 0x708 JUMP JUMPDEST JUMPDEST DUP1 PUSH1 0x40 MSTORE POP POP POP JUMP JUMPDEST PUSH1 0x0 PUSH2 0x772 PUSH2 0x6EA JUMP JUMPDEST SWAP1 POP PUSH2 0x77E DUP3 DUP3 PUSH2 0x737 JUMP JUMPDEST SWAP2 SWAP1 POP JUMP JUMPDEST PUSH1 0x0 PUSH8 0xFFFFFFFFFFFFFFFF DUP3 GT ISZERO PUSH2 0x79E JUMPI PUSH2 0x79D PUSH2 0x708 JUMP JUMPDEST JUMPDEST PUSH2 0x7A7 DUP3 PUSH2 0x3C6 JUMP JUMPDEST SWAP1 POP PUSH1 0x20 DUP2 ADD SWAP1 POP SWAP2 SWAP1 POP JUMP JUMPDEST PUSH1 0x0 PUSH2 0x7C7 PUSH2 0x7C2 DUP5 PUSH2 0x783 JUMP JUMPDEST PUSH2 0x768 JUMP JUMPDEST SWAP1 POP DUP3 DUP2 MSTORE PUSH1 0x20 DUP2 ADD DUP5 DUP5 DUP5 ADD GT ISZERO PUSH2 0x7E3 JUMPI PUSH2 0x7E2 PUSH2 0x703 JUMP JUMPDEST JUMPDEST PUSH2 0x7EE DUP5 DUP3 DUP6 PUSH2 0x39C JUMP JUMPDEST POP SWAP4 SWAP3 POP POP POP JUMP JUMPDEST PUSH1 0x0 DUP3 PUSH1 0x1F DUP4 ADD SLT PUSH2 0x80B JUMPI PUSH2 0x80A PUSH2 0x6FE JUMP JUMPDEST JUMPDEST DUP2 MLOAD PUSH2 0x81B DUP5 DUP3 PUSH1 0x20 DUP7 ADD PUSH2 0x7B4 JUMP JUMPDEST SWAP2 POP POP SWAP3 SWAP2 POP POP JUMP JUMPDEST PUSH1 0x0 PUSH1 0x20 DUP3 DUP5 SUB SLT ISZERO PUSH2 0x83A JUMPI PUSH2 0x839 PUSH2 0x6F4 JUMP JUMPDEST JUMPDEST PUSH1 0x0 DUP3 ADD MLOAD PUSH8 0xFFFFFFFFFFFFFFFF DUP2 GT ISZERO PUSH2 0x858 JUMPI PUSH2 0x857 PUSH2 0x6F9 JUMP JUMPDEST JUMPDEST PUSH2 0x864 DUP5 DUP3 DUP6 ADD PUSH2 0x7F6 JUMP JUMPDEST SWAP2 POP POP SWAP3 SWAP2 POP POP JUMP JUMPDEST PUSH1 0x0 DUP1 PUSH1 0x40 DUP4 DUP6 SUB SLT ISZERO PUSH2 0x884 JUMPI PUSH2 0x883 PUSH2 0x6F4 JUMP JUMPDEST JUMPDEST PUSH1 0x0 DUP4 ADD MLOAD PUSH8 0xFFFFFFFFFFFFFFFF DUP2 GT ISZERO PUSH2 0x8A2 JUMPI PUSH2 0x8A1 PUSH2 0x6F9 JUMP JUMPDEST JUMPDEST PUSH2 0x8AE DUP6 DUP3 DUP7 ADD PUSH2 0x7F6 JUMP JUMPDEST SWAP3 POP POP PUSH1 0x20 DUP4 ADD MLOAD PUSH8 0xFFFFFFFFFFFFFFFF DUP2 GT ISZERO PUSH2 0x8CF JUMPI PUSH2 0x8CE PUSH2 0x6F9 JUMP JUMPDEST JUMPDEST PUSH2 0x8DB DUP6 DUP3 DUP7 ADD PUSH2 0x7F6 JUMP JUMPDEST SWAP2 POP POP SWAP3 POP SWAP3 SWAP1 POP JUMP JUMPDEST PUSH1 0x0 PUSH2 0x8F2 PUSH1 0xB DUP4 PUSH2 0x38B JUMP JUMPDEST SWAP2 POP PUSH2 0x8FD DUP3 PUSH2 0x610 JUMP JUMPDEST PUSH1 0x20 DUP3 ADD SWAP1 POP SWAP2 SWAP1 POP JUMP JUMPDEST PUSH1 0x0 PUSH1 0x20 DUP3 ADD SWAP1 POP DUP2 DUP2 SUB PUSH1 0x0 DUP4 ADD MSTORE PUSH2 0x921 DUP2 PUSH2 0x8E5 JUMP JUMPDEST SWAP1 POP SWAP2 SWAP1 POP JUMP INVALID LOG2 PUSH5 0x6970667358 0x22 SLT KECCAK256 0xED 0xE5 RETURN 0x1F PUSH5 0xD7B8B40F9C 0xC1 ADDMOD 0xC2 PUSH28 0x8D74A6281E349B0D1FC833222D19FA06946264736F6C634300081200 CALLER "
				},
				"gasEstimates": {
					"creation": {
						"codeDepositCost": "479600",
						"executionCost": "511",
						"totalCost": "480111"
					},
					"external": {
						"combineStrings()": "infinite",
						"decodeString()": "infinite",
						"encodeNumber()": "infinite",
						"encodeString()": "infinite",
						"encodeStringBytes()": "infinite",
						"encodeStringPacked()": "infinite",
						"multiCastStringPacked()": "infinite",
						"multiDecode()": "infinite",
						"multiEncode()": "infinite",
						"multiEncodePacked()": "infinite"
					}
				},
				"methodIdentifiers": {
					"combineStrings()": "114a7610",
					"decodeString()": "a77b0360",
					"encodeNumber()": "15889d1a",
					"encodeString()": "ed5df365",
					"encodeStringBytes()": "406ec9f2",
					"encodeStringPacked()": "2085f4b9",
					"multiCastStringPacked()": "09a97cb8",
					"multiDecode()": "c452d79b",
					"multiEncode()": "a6dc49b8",
					"multiEncodePacked()": "b4748718"
				}
			},
			"storageLayout": {
				"storage": [],
				"types": null
			},
			"userdoc": {
				"kind": "user",
				"methods": {},
				"version": 1
			}
		}
	}
}